:020000040800F2
:1000000000000220B51A0008B9040008BB0400086B
:10001000BD040008BF040008C1040008000000007F
:10002000000000000000000000000000C304000801
:10003000C504000800000000C7040008C904000847
:10004000051B0008051B0008051B0008051B000810
:10005000051B0008051B0008051B0008051B000800
:10006000051B0008051B0008051B0008051B0008F0
:10007000051B0008051B0008051B0008051B0008E0
:10008000051B0008051B0008051B0008051B0008D0
:10009000D1040008051B0008051B0008051B00080B
:1000A000051B0008051B0008051B0008051B0008B0
:1000B000051B0008051B0008051B0008051B0008A0
:1000C000051B0008051B0008051B0008051B000890
:1000D000051B0008051B0008051B0008051B000880
:1000E000051B0008051B0008051B0008051B000870
:1000F000051B0008051B0008051B0008051B000860
:10010000051B0008051B0008051B0008051B00084F
:10011000051B0008051B0008051B0008051B00083F
:10012000051B0008051B0008051B0008051B00082F
:10013000051B0008051B0008051B0008051B00081F
:10014000051B0008051B0008051B0008051B00080F
:10015000051B0008051B0008051B0008051B0008FF
:10016000051B0008051B0008051B0008051B0008EF
:10017000051B0008051B0008051B00080000000007
:08018000051B0008051B000827
:10018800830730B547D0541E002A3ED0CAB2034672
:1001980001E0013C39D303F8012B9D07F9D1032C69
:1001A8002CD9CDB205EB05250F2C05EB054535D926
:1001B800A4F1100222F00F0C03F1100EE6444FEAEE
:1001C800121C1A46156055609560D560103272454C
:1001D800F8D10CF1010214F00C0F03EB021204F039
:1001E8000F0C13D0ACF1040323F0030304331344BE
:1001F80042F8045B9A42FBD10CF003042CB1C9B25B
:100208001C4403F8011B9C42FBD130BD64461346D5
:10021800002CF4D1F9E703461446C0E71A46A44671
:10022800E0E700BF70B50F4B0F4DAB42A3EB0506DF
:1002380007D0B610002455F8043B01349847A6426D
:10024800F9D801F0ADFD094D094B5E1BAB424FEAF1
:10025800A60606D0002455F8043B01349847A64268
:10026800F9D870BDD81D0008D81D0008D81D000891
:10027800DC1D000853B94AB9002908BF00281CBF73
:100288004FF0FF314FF0FF3000F00CB8ADF1080C23
:100298006DE904CE01F033FCDDF804E0DDE902236A
:1002A80004B07047704700BF10B5054C237833B9C8
:1002B800044B13B10448AFF300800123237010BD31
:1002C8000C00002000000000A81D000808B5034B22
:1002D8001BB103490348AFF3008008BD00000000CC
:1002E80010000020A81D000872B6FEE700B595B002
:1002F8003022002108A8FFF743FF0023039304934B
:100308000593069307930193204A116C41F080519D
:100318001164126C02F080520192019A02931C4BF4
:100328001A6842F480421A601B6803F480430293FF
:10033800029B012308934FF48033099302220E9203
:100348004FF480030F9304231093A8211191129264
:10035800139308A800F0DAFC98B90F23039302233B
:100368000493002305934FF4A05306934FF480534E
:100378000793052103A800F033FF20B915B05DF8F5
:1003880004FBFFF7B1FFFFF7AFFF00BF00380240E3
:100398000070004000B583B001F06AF9FFF7A6FFCE
:1003A80001F0B0F901F0CAF901F028FA3C4800F070
:1003B8000DFA08B1FFF798FF0221394800F05EFBFB
:1003C80008B1FFF791FF4FF4FA6001F07DF90021C1
:1003D80001910091DFED330A9FED330A4FF47A73F0
:1003E8001A46012001F0ECFA0A2001F06DF903E049
:1003F8002E4B002283F874202C4B1B7FDBB2FD2B85
:10040800F6D12A4B5B7FDBB29F2BF1D1274B002122
:100418001977597701910091DFED220A9FED220AA1
:100428004FF47A731A46022001F0CAFA0A2001F042
:100438004BF903E01D4B002283F874201B4B1B7FF4
:10044800DBB2FD2BF6D1194B5B7FDBB29F2BF1D1D1
:10045800164B00201877587701900090DFED110AAD
:100468009FED110A4FF47A731A46014601F0A8FA73
:100478000A2001F029F903E00C4B002283F87420CC
:100488000A4B1B7FDBB2FD2BF6D1084B5B7FDBB23F
:100498009F2BF1D1054B00221A775A77FEE700BF50
:1004A800300000200000E14500007A445800002098
:1004B800FEE7FEE7FEE7FEE7FEE770477047704796
:1004C80008B501F0EFF808BD08B50E4BA3F11C0202
:1004D80000210D4800F01DFA78B90C4B1B69DBB2FE
:1004E80005E00A4A1A44002111770133DBB2072BD1
:1004F800F7D9064B012283F87420034800F0DDFA8F
:1005080008BD00BF74000020300000205800002003
:1005180082B0002100910B4B5A6C42F480425A641D
:100528005A6C02F480420092009A01911A6C42F0CF
:1005380080521A641B6C03F080530193019B02B034
:10054800704700BF00380240002800F0A18038B58D
:10055800044690F82030D3B12268136843F00103B1
:10056800136001F0ABF8054623685A6812F0010FD2
:1005780010D101F0A3F8401B0A28F5D9636A43F4A7
:1005880000336362052384F82030012038BD01F070
:10059800F5F8E1E71A6822F002021A6001F08EF815
:1005A800054623685A6812F0020F0DD001F086F84C
:1005B800401B0A28F5D9636A43F4003363620523B4
:1005C80084F820300120E1E7227E012A3DD01A6814
:1005D80022F080021A60637E012B3BD022681368E8
:1005E80023F040031360A37E012B39D022681368DF
:1005F80023F020031360E37E012B37D022681368B1
:1006080043F010031360237F012B35D02268136851
:1006180023F008031360637F012B33D0226813682B
:1006280023F004031360A368E268134322691343A9
:10063800626913436268013A21681343CB61002061
:100648006062012384F82030A0E71A6842F0800233
:100658001A60C0E72268136843F040031360C2E7DA
:100668002268136843F020031360C4E72268136804
:1006780023F010031360C6E72268136843F00803E9
:100688001360C8E72268136843F004031360CAE7DD
:100698000120704790F82030013BDBB2012B05D9CF
:1006A800436A43F4802343620120704730B5464BC8
:1006B800D3F8002242F00102C3F80022D3F8002246
:1006C80022F47C52C3F80022D3F80022486A42EA96
:1006D8000022C3F800224A6902F01F02012000FA32
:1006E80002F2D3F81C026FEA020C20EA0200C3F8F7
:1006F8001C02CB69C3B9344BD3F80C020CEA0000D6
:10070800C3F80C028C884869CD6844EA054448302F
:1007180043F830408C68088840EA04404C6904F18A
:10072800480E03EBCE035860CB69012B1ED08B69B2
:10073800002B33D12448D0F804320CEA0303C0F864
:1007480004320B698BBB2048D0F814320CEA03033F
:10075800C0F814320B6A012B2ED01B4AD2F8003293
:1007680023F00103C2F80032002030BD164BD3F845
:100778000C021043C3F80C028C8848690D6844EADF
:100788000544483043F8304088894C698D6840EA10
:100798000540483403EBC4035860C8E70A48D0F85A
:1007A80004321343C0F80432CBE70748D0F81432B8
:1007B8001343C0F81432CDE70349D1F81C32134370
:1007C800C1F81C32C9E700BF0064004070B5044698
:1007D80090F82050EDB2012D06D0436A43F400236F
:1007E80043620125284670BD022380F82030026844
:1007F800136823F00103136000F060FF06462368C6
:100808005B6813F0010F0CD000F058FF831B0A2B14
:10081800F5D9636A43F400336362052384F8203012
:10082800E0E700256562DDE730B590F820C0046890
:10083800A4680CF1FF3C5FFA8CFCBCF1010F62D894
:1008480014F0E05F59D0C4F3016C012404FA0CF4ED
:100858001C608B68002B3DD10D68CB68046843EAA7
:1008680045550CF118031B01E55003680C690CF1A0
:10087800180E03EB0E135C600B7D012B35D0D1797C
:1008880093791B0443EA0163517943EA01231479FC
:100898000168234301EB0C11C1F88C31D1789378AE
:1008A8001B0443EA0163517843EA01231178026883
:1008B8000B4302EB0C12C2F8883102680CF1180CD9
:1008C8004FEA0C1C52F80C3043F0010342F80C308C
:1008D80000201DE04C6843EAC403CC6823430CF1B4
:1008E8001804240105682B51BFE7036803EB0E13B6
:1008F800596841F480715960C1E7436A43F40013B1
:100908004362012004E0436A43F4802343620120E8
:1009180030BD90F820C00CF1FF3C5FFA8CFCBCF1B4
:10092800010F00F2A58030B451B90468E46814F0EE
:10093800030F10D1436A43F40013436201207EE0A1
:100948000468246914F0030F05D1436A43F40013C3
:100958004362012073E0056801F11B0424012C594E
:1009680004F004049460002C6BD1056801F11B04A9
:1009780024012C59640D1460046801F11B0C4FEA22
:100988000C1C54F80C4004F00204D4600468A4441D
:10099800DCF8045015F0080F5BD0082414610468D3
:1009A80001F11B0C04EB0C146468C4F30724946174
:1009B800046804EB0C146468240C5461026802EBAC
:1009C8000112D2F8B8211A70026802EB0112D2F8AB
:1009D800B821C2F307225A70026802EB0112D2F85A
:1009E800B821C2F307429A70026802EB0112D2F8EA
:1009F800B821120EDA70026802EB0112D2F8BC219B
:100A08001A71026802EB0112D2F8BC21C2F3072264
:100A18005A71026802EB0112D2F8BC21C2F30742F4
:100A28009A71026802EB0112D2F8BC21120EDA7137
:100A3800C1B90268D36843F02003D360002030BCFA
:100A48007047056801F11B0424012C59E40854601F
:100A580092E701F11B0504EB0514646804F00F0428
:100A680014619CE70268136943F020031361E5E70A
:100A7800436A43F4802343620120704790F8203092
:100A8800013BDBB2012B05D9436A43F4802343625F
:100A980001207047026853690B4353610020704777
:100AA8007047704770477047704770477047704786
:100AB800704770477047704770472DE9F84F0546F3
:100AC80003685C69D3F804809F68D3F80CA0D3F856
:100AD8001090D3F818B014F001063BD017F00106B7
:100AE80016D001229A6017F0020F08D117F0040FF0
:100AF8000CD117F0080606D04FF4805608E0FFF72F
:100B0800CFFF002604E0FFF7CEFF01E04FF40066B8
:100B180017F4807F0DD02B684FF480729A6017F419
:100B2800007F40F0968017F4806F00F0968046F4BE
:100B3800005617F4803F0DD02B684FF480329A602E
:100B480017F4003F40F0938017F4802F00F0938053
:100B580046F4004614F0080F07D01AF0100F04D01E
:100B680046F400762B681022DA6014F0040F03D0E4
:100B78001AF0080F40F0898014F0020F05D02B6896
:100B8800DB6813F0030F40F0878014F0400F07D0A4
:100B980019F0100F04D046F480662B6810221A61F1
:100BA80014F0200F02D019F0080F79D114F0100FAB
:100BB80004D02B681B6913F0030F78D114F4003F9D
:100BC80002D018F0100F76D114F4803F02D018F03C
:100BD800080F77D114F4004F37D018F0040F31D034
:100BE80014F4807F04D01BF0010F01D046F00106F9
:100BF80014F4007F04D01BF0020F01D046F0020667
:100C080014F4806F04D01BF0040F01D046F00406E2
:100C180014F4006F16D01BF0700B13D0BBF1400F0B
:100C280066D056D8BBF1200F5CD0BBF1300F5CD03A
:100C3800BBF1100F01D146F008062A68936923F02A
:100C4800700393612B6804225A60002E56D1BDE8C8
:100C5800F88F2846FFF725FF6BE717F4006F02D0DF
:100C680046F4804665E72846FFF71EFF61E72846F9
:100C7800FFF718FF6EE717F4002F02D046F480360E
:100C880068E72846FFF711FF64E72B680822DA6057
:100C98002846FFF70CFF6FE72846FFF707FF74E7C2
:100CA8002B6808221A612846FFF703FF7EE72846CB
:100CB800FFF7FEFE82E72B6810225A602846FFF7EE
:100CC800F9FE81E72B6808225A602846FFF7F3FEF1
:100CD80080E7BBF1500F0ED0BBF1600FADD146F4E9
:100CE8008076AAE746F01006A7E746F02006A4E7B4
:100CF80046F04006A1E746F080069EE76B6A33435C
:100D08006B622846FFF7D8FEA1E70000002800F034
:100D1800E08170B582B00446036813F0010F3BD040
:100D28009F4B9B6803F00C03042B2CD09C4B9B68B7
:100D380003F00C03082B21D06368B3F5803F4FD034
:100D4800B3F5A02F52D0964B1A6822F480321A605D
:100D58001A6822F480221A606368002B50D000F0D1
:100D6800ADFC05468E4B1B6813F4003F14D100F010
:100D7800A5FC401B6428F5D90320B1E1884B5B68CA
:100D880013F4800FD8D0864B1B6813F4003F03D0B0
:100D98006368002B00F09F81236813F0020F54D082
:100DA8007F4B9B6813F00C0F3ED07D4B9B6803F084
:100DB8000C03082B33D0E368002B68D0794B012251
:100DC8001A6000F07BFC0546754B1B6813F0020F98
:100DD80054D100F073FC401B0228F5D903207FE1B1
:100DE8006F4A136843F480331360B5E76C4B1A6895
:100DF80042F480221A601A6842F480321A60ABE723
:100E080000F05CFC0546664B1B6813F4003FC3D03A
:100E180000F054FC401B6428F5D9032060E1604BC6
:100E28005B6813F4800FC6D15D4B1B6813F0020F8B
:100E380003D0E368012B40F05081594A136823F02E
:100E4800F803216943EAC1031360236813F0080F0C
:100E580042D063696BB3534B0122C3F8802E00F074
:100E68002DFC05464E4B5B6F13F0020F34D100F09A
:100E780025FC401B0228F5D9032031E1484A1368B4
:100E880023F0F803216943EAC1031360DDE7454B0A
:100E980000221A6000F012FC0546414B1B6813F053
:100EA800020FD2D000F00AFC401B0228F5D903201B
:100EB80016E13C4B0022C3F8802E00F0FFFB0546EC
:100EC800374B5B6F13F0020F06D000F0F7FB401BA7
:100ED8000228F5D9032003E1236813F0040F77D023
:100EE8002F4B1B6C13F0805F33D1002301932C4BE5
:100EF8001A6C42F080521A641B6C03F08053019301
:100F0800019B0125284B1B6813F4807F23D0A3681D
:100F1800012B34D0052B38D0214B1A6F22F0010257
:100F28001A671A6F22F004021A67A368002B3DD0D3
:100F380000F0C4FB06461A4B1B6F13F0020F46D194
:100F480000F0BCFB801B41F288339842F3D90320A0
:100F5800C6E00025D6E7144A136843F4807313608B
:100F680000F0ACFB0646104B1B6813F4807FCED113
:100F780000F0A4FB801B0228F5D90320B0E0084A42
:100F8800136F43F001031367CFE7054B1A6F42F065
:100F980004021A671A6F42F001021A67C5E700BF18
:100FA80000380240000047420070004000F086FB15
:100FB8000646524B1B6F13F0020F08D000F07EFB61
:100FC800801B41F288339842F3D9032088E0EDB9B9
:100FD800A369002B00F08380484A926802F00C0253
:100FE800082A51D0022B17D0454B00221A6600F070
:100FF80065FB0446414B1B6813F0007F42D000F0AC
:101008005DFB001B0228F5D9032069E03B4A136CFD
:1010180023F080531364DBE7394B00221A6600F093
:101028004DFB0546354B1B6813F0007F06D000F0DA
:1010380045FB401B0228F5D9032051E0E369226AE9
:101048001343626A43EA8213A26A5208013A43EAE6
:101058000243E26A43EA0263284A5360284B0122AA
:101068001A6600F02BFB0446244B1B6813F0007F24
:1010780006D100F023FB001B0228F5D903202FE03E
:1010880000202DE000202BE0012B2BD01B4B5B68B0
:1010980003F48001E269914226D103F03F02216AFC
:1010A8008A4223D1616A47F6C0721A40B2EB811FA7
:1010B8001ED103F44031A26A5208013AB1EB024F43
:1010C80018D103F07063E26AB3EB026F14D1002009
:1010D80006E001207047012002E0012000E0002026
:1010E80002B070BD0120FBE70120F9E70120F7E716
:1010F8000120F5E70120F3E70120F1E7003802407D
:101108000000474208B5334B9B6803F00C03042BDF
:101118005BD0082B5BD12F4B5A6802F03F025B680B
:1011280013F4800F2CD02B4B5868C0F388104FEA6B
:10113800401CBCEB000C6EEB0E0E4FEA8E1343EA1C
:101148009C634FEA8C11B1EB0C0163EB0E03DB00DF
:1011580043EA5173C90011EB000C43F10003590233
:1011680000234FEA4C2041EADC51FFF783F8194B82
:101178005B68C3F3014301335B00B0FBF3F008BDC8
:10118800144B5868C0F388104FEA401CBCEB000CA5
:101198006EEB0E0E4FEA8E1343EA9C634FEA8C11F6
:1011A800B1EB0C0163EB0E03DB0043EA5173C9009A
:1011B80011EB000C43F10003990200234FEA8C2045
:1011C80041EA9C51FFF756F8D1E70348D7E70348AF
:1011D800D5E700BF0038024000127A000024F4006E
:1011E800002800F09B8070B50D4604464F4B1B68E5
:1011F80003F007038B4208D2CBB24C4A1370136832
:1012080003F007038B4240F08B80236813F0020F32
:1012180017D013F0040F04D0454A936843F4E05301
:101228009360236813F0080F04D0414A936843F48D
:10123800604393603E4A936823F0F003A1680B4330
:101248009360236813F0010F32D06368012B21D01B
:101258009A1E012A25D9364A126812F0020F61D067
:1012680033498A6822F0030213438B6000F026FAA0
:1012780006462F4B9B6803F00C036268B3EB820FA2
:1012880016D000F01BFA801B41F288339842F0D93F
:10129800032042E0264A126812F4003FE0D1012000
:1012A8003BE0234A126812F0007FD9D1012034E0D4
:1012B8001E4B1B6803F00703AB4207D9EAB21B4B6E
:1012C8001A701B6803F00703AB422DD1236813F093
:1012D800040F06D0164A936823F4E053E1680B43E1
:1012E8009360236813F0080F07D0114A936823F41A
:1012F8006043216943EAC1039360FFF703FF0C4B86
:101308009B68C3F303130B4AD35CD8400A4B18609D
:101318000A4B186800F086F9002070BD012070475C
:101328000120FAE70120F8E70120F6E7003C024037
:1013380000380240C01D00080800002004000020FA
:1013480000230F2B00F2E98070B582B065E0856854
:101358004FEA430E032404FA0EF425EA0405CC6888
:1013680004FA0EF42C438460446824EA02044A68B0
:10137800C2F300129A40224342605CE0DC08083461
:1013880050F8242003F00705AD004FF00F0E0EFAB9
:1013980005FE22EA0E0E0A69AA4042EA0E0240F849
:1013A80024205CE0072200E0002202FA0EF22A4321
:1013B80002345A4D45F82420594A94686FEA0C02C1
:1013C80024EA0C054E6816F4801F01D04CEA040587
:1013D800534CA560E46802EA04054E6816F4001F41
:1013E80001D04CEA04054E4CE560646802EA040545
:1013F8004E6816F4003F01D04CEA0405484C65607D
:10140800246822404D6815F4803F01D04CEA04025C
:10141800434C226001330F2B7DD801229A400C687F
:1014280004EA020C32EA0404F4D14C6804F0030420
:10143800013C012C8BD94A6802F00302032A09D027
:10144800C4685D000322AA4024EA02048A68AA400C
:101458002243C2604A6802F00302022A8ED004685E
:101468004FEA430E032202FA0EF224EA02044A6803
:1014780002F0030202FA0EF2224302604A6812F4F2
:10148800403FC7D000220192264A546C44F480445D
:101498005464526C02F480420192019A9C08A51C83
:1014A8001E4A52F8255003F0030E4FEA8E0E0F2203
:1014B80002FA0EF225EA02051B4A90423FF474AF85
:1014C80002F5806290421AD002F58062904218D0EC
:1014D80002F58062904216D002F58062904214D0E4
:1014E80002F58062904212D002F58062904210D0DC
:1014F80002F5806290423FF455AF082255E7012279
:1015080053E7022251E703224FE704224DE7052261
:101518004BE7062249E702B070BD7047003801402A
:10152800003C01400038024000000240002807DB70
:1015380000F01F02400901239340024A42F820307C
:10154800704700BF00E100E0002808DB0901C9B2CC
:1015580000F1604000F5614080F80013704700F02A
:101568000F000901C9B2014B1954704714ED00E08E
:1015780000B500F00700C0F1070CBCF1040F28BF4C
:101588004FF0040C031D062B0FD9C31E4FF0FF3E6E
:101598000EFA0CF021EA000199400EFA03FE22EA45
:1015A8000E0241EA02005DF804FB0023EEE70000AA
:1015B800074AD36823F4E0631B041B0C000200F401
:1015C800E060034343F0BF6343F40033D3607047E4
:1015D80000ED00E010B50446054BD868C0F30220C2
:1015E800FFF7C6FF01462046FFF7AEFF10BD00BF5C
:1015F80000ED00E008B5FFF799FF08BD0138B0F12C
:10160800807F0BD24FF0E0235861054AF02182F821
:1016180023100020986107221A6170470120704743
:1016280000ED00E010B504460E4B1A784FF47A73BB
:10163800B3FBF2F30C4A1068B0FBF3F0FFF7DEFFE0
:1016480068B90F2C01D901200AE0002221464FF089
:10165800FF30FFF7BFFF054B1C60002000E00120B2
:1016680010BD00BF0000002008000020040000207A
:1016780008B50B4B1A6842F400721A601A6842F4F3
:1016880080621A601A6842F480721A600320FFF7B9
:101698008FFF0120FFF7C6FFFEF73AFF002008BDC5
:1016A800003C0240034A1168034B1B780B4413604B
:1016B800704700BF2800002000000020014B186878
:1016C800704700BF2800002038B50446FFF7F6FF32
:1016D8000546B4F1FF3F02D0044B1B781C44FFF7CA
:1016E800EDFF401BA042FAD338BD00BF0000002028
:1016F800034AD2F8883043F47003C2F88830704740
:1017080000ED00E082B0002100910B4B1A6B42F013
:1017180080021A631A6B02F080020092009A01910B
:101728001A6B42F001021A631B6B03F00103019369
:10173800019B02B0704700BF0038024008B50D4851
:101748000D4B03600E23436000238360C3604FF496
:101758004032026143610376012242768376C37682
:1017680003774377FEF7F0FE00B908BDFEF7BCFD2E
:10177800FBE700BF300000200064004010B588B0CF
:101788000023039304930593069307930268194B68
:101798009A4201D008B010BD0024019403F5EA3341
:1017A8001A6C42F000721A641A6C02F0007201920C
:1017B800019A02941A6B42F001021A631B6B03F040
:1017C80001030293029B4FF4C05303930223049333
:1017D800032306930923079303A90748FFF7B0FDDE
:1017E800224621461420FFF7F5FE1420FFF702FFDA
:1017F800D0E700BF006400400000024000B58FB091
:1018080000228DF80F209DF80F305B09ADF80A30E3
:101818009DF80F30DB029BB243F00403ADF80C30A7
:101828008DF80E209DF80E305B09ADF806309DF856
:101838000E30DB029BB243F00403ADF80830099286
:101848000A9201210B91BDF80A309BB20493BDF8AE
:101858000C309BB20593BDF806309BB20693BDF8D9
:1018680008309BB2079308920C910D9204A9044882
:10187800FEF710FF0028F9D10FB05DF804FB00BF98
:101888003000002010B582B0044600238DF80730E0
:101898008DF806308DF805308DF804308DF803305A
:1018A8008B1EDBB28DF8063013E09DF8053001334E
:1018B8003F4AD3643F4A404BA2F118013F48FEF724
:1018C800B3FF0028F6D19DF803300133DBB28DF861
:1018D80003309DF80720D2B29DF80630DBB29A4259
:1018E80064D29DF806309DF807209B1ADBB28DF86C
:1018F80005302F4B0021D96320789DF8032042EA58
:1019080000221A646278D2B283F8542004225A64FE
:1019180099649DF80530DBB2072B22D88DF80410A6
:101928009DF80420D2B29DF80530DBB29A42BCD2B1
:101938009DF8073002339DF804100131E25CD2B201
:101948001B4B0B4483F854209DF804300133DBB261
:101958008DF804309DF807300133DBB28DF807307D
:10196800DEE700238DF804309DF80430DBB2062B47
:1019780018D89DF8073002339DF804100131E25C55
:10198800D2B20B4B0B4483F854209DF8043001333A
:10199800DBB28DF804309DF807300133DBB28DF8E7
:1019A8000730E1E7024B0822DA6483E702B010BD92
:1019B80058000020AC0000202C000020300000203F
:1019C800F0B52DED028B89B007460E4615461C462C
:1019D800F0EE408AB0EE608A202200216846FEF7C9
:1019E800CFFBF2EE047A28EEA70AB5EEC00AF1EEB4
:1019F80010FA4ADDBCEEC00A10EE103A1FFA83FE58
:101A0800F2EE047A68EE270AF5EEC00AF1EE10FA53
:101A180044DDFCEEE07A17EE90CA8DF80070FD23E5
:101A28008DF801308DF802602B0A8DF803308DF89F
:101A38000450230A8DF805308DF806404FEA1E231E
:101A48008DF807308DF808E04FEA1C638DF80930EF
:101A5800CCF307438DF80A30CCF307238DF80B300D
:101A68008DF80CC09DF840308DF80D309DF844304D
:101A78008DF80E306B238DF80F3010216846FFF774
:101A880001FF09B0BDEC028BF0BDB1EE400ABCEE1F
:101A9800C00A10EE103A1FFA83FEB1E7F1EE600AB1
:101AA800FCEEE07A17EE90CAB7E70000DFF834D012
:101AB800FFF71EFE0C480D490D4A002302E0D458DA
:101AC800C4500433C4188C42F9D30A4A0A4C002380
:101AD80001E013600432A242FBD3FEF7A3FBFEF73A
:101AE80059FC704700000220000000200C00002074
:101AF800E01D00080C000020D0000020FEE72DE9C2
:101B0800F04786468C460846089E15467446194690
:101B1800002B40F0C2808542B2FA82F245D94AB120
:101B2800C2F1200300FA02FC2EFA03F3954043EABF
:101B38000C0C94404FEA154EA8B2BCFBFEF8230CDF
:101B48000EFB18CC08FB00F943EA0C43994528D949
:101B5800EB1808F1FF3704D2994502D9A8F102071A
:101B68002B44A3EB0903A4B2B3FBFEFC0EFB1C330E
:101B78000CFB00F044EA0344A04214D92C190CF1E0
:101B8800FF3304D2A04202D9ACF102032C44241A38
:101B980043EA07401EB1D440002334607360BDE8B7
:101BA800F0874746DDE76346F1E792BB431B012117
:101BB8004FEA154EAFB2B3FBFEFC200C0EFB1C33F4
:101BC8000CFB07F840EA0343984562D9EB180CF17F
:101BD800FF3004D2984502D9ACF102002B44A3EBA4
:101BE8000803A4B2B3FBFEFC0EFB1C330CFB07F787
:101BF80044EA0344A7424ED92C190CF1FF3304D20E
:101C0800A74202D9ACF102032C44E41B43EA00408A
:101C1800C0E7C2F1200320FA03F1954090402EFA64
:101C280003F303434FEA154EAFB2B1FBFEFC0EFBC4
:101C38001C10190C0CFB07F841EA0041884504FA0E
:101C480002F422D969180CF1FF3004D2884502D970
:101C5800ACF102002944A1EB08019BB2B1FBFEFCE8
:101C68000EFB1C110CFB07F743EA01439F420ED9F8
:101C7800EB180CF1FF3104D29F4202D9ACF10201FA
:101C88002B44DB1B41EA004192E76046E3E76146EB
:101C9800F7E76046A3E76346B7E7834206D916B974
:101CA800002108467BE7C6E900E0F9E7B3FA83F7C5
:101CB8008FB9834201D3724508D8BEEB020460EBAA
:101CC800030301209C461EB9002168E73846FAE75D
:101CD800C6E9004CF8E7C7F1200CBB4022FA0CF427
:101CE8001C432EFA0CF120FA0CF3B84001434FEADA
:101CF80014490EFA07F5B3FBF9F81FFA84FE09FB3D
:101D080018300B0C08FB0EFA43EA00439A4502FA16
:101D180007F240D9E31808F1FF3004D29A4502D9F6
:101D2800A8F102002344A3EB0A0389B2B3FBF9F834
:101D380009FB183308FB0EFE41EA03418E452CD9F6
:101D4800611808F1FF3304D28E4502D9A8F10203C5
:101D5800214443EA0040A0FB0298A1EB0E01414553
:101D6800CE46434602D306D14D4504D2B9EB020E06
:101D780068EB04030138002EA6D0B5EB0E0261EB28
:101D8800030101FA0CFC22FA07F34CEA0303F940B9
:101D9800C6E9003198E74046C5E74346D9E7000061
:101DA800F8B500BFF8BC08BC9E467047F8B500BF40
:081DB800F8BC08BC9E46704710
:101DC00000000000000000000102030406070809EB
:081DD00036FDFF7F0100000059
:041DD800D502000828
:041DDC00B102000848
:0C1DE00001000000100000000024F400CE
:0400000508001AB520
:00000001FF
