:020000040800F2
:100000000000022011310008050D0008070D00084E
:10001000090D00080B0D00080D0D00080000000080
:100020000000000000000000000000000F0D0008AC
:10003000110D000800000000130D0008150D000848
:100040006131000861310008613100086131000848
:100050006131000861310008613100086131000838
:100060006131000861310008613100086131000828
:100070006131000861310008613100086131000818
:100080006131000861310008613100086131000808
:100090001D0D000861310008613100086131000860
:1000A000613100086131000861310008650D000808
:1000B00061310008613100086131000861310008D8
:1000C00061310008613100086131000861310008C8
:1000D00061310008613100086131000861310008B8
:1000E00061310008613100086131000861310008A8
:1000F0006131000861310008613100086131000898
:100100006131000861310008613100086131000887
:100110006131000861310008613100086131000877
:100120006131000861310008613100086131000867
:100130006131000861310008613100086131000857
:100140006131000861310008613100086131000847
:100150006131000861310008613100086131000837
:100160006131000861310008613100086131000827
:1001700061310008613100086131000800000000B1
:08018000613100086131000843
:10018800830730B547D0541E002A3ED0CAB2034672
:1001980001E0013C39D303F8012B9D07F9D1032C69
:1001A8002CD9CDB205EB05250F2C05EB054535D926
:1001B800A4F1100222F00F0C03F1100EE6444FEAEE
:1001C800121C1A46156055609560D560103272454C
:1001D800F8D10CF1010214F00C0F03EB021204F039
:1001E8000F0C13D0ACF1040323F0030304331344BE
:1001F80042F8045B9A42FBD10CF003042CB1C9B25B
:100208001C4403F8011B9C42FBD130BD64461346D5
:10021800002CF4D1F9E703461446C0E71A46A44671
:10022800E0E700BF70B50F4B0F4DAB42A3EB0506DF
:1002380007D0B610002455F8043B01349847A6426D
:10024800F9D803F0F9F8094D094B5E1BAB424FEAA8
:10025800A60606D0002455F8043B01349847A64268
:10026800F9D870BDB8340008B8340008B8340008AC
:10027800BC34000881F0004102E000BF83F0004375
:1002880030B54FEA41044FEA430594EA050F08BF29
:1002980090EA020F1FBF54EA000C55EA020C7FEAED
:1002A800645C7FEA655C00F0E2804FEA5454D4EB6A
:1002B8005555B8BF6D420CDD2C4480EA020281EA34
:1002C800030382EA000083EA010180EA020281EA6C
:1002D8000303362D88BF30BD11F0004F4FEA0131BE
:1002E8004FF4801C4CEA113102D0404261EB4101CD
:1002F80013F0004F4FEA03334CEA133302D0524253
:1003080063EB430394EA050F00F0A780A4F101040E
:10031800D5F1200E0DDB02FA0EFC22FA05F2801848
:1003280041F1000103FA0EF2801843FA05F359412E
:100338000EE0A5F120050EF1200E012A03FA0EFCAD
:1003480028BF4CF0020C43FA05F3C01851EBE371D7
:1003580001F0004507D54FF0000EDCF1000C7EEBF4
:1003680000006EEB0101B1F5801F1BD3B1F5001F32
:100378000CD349085FEA30004FEA3C0C04F1010451
:100388004FEA445212F5800F80F09A80BCF1004F7A
:1003980008BF5FEA500C50F1000041EB045141EAFC
:1003A800050130BD5FEA4C0C404141EB0101013CC5
:1003B80028BFB1F5801FE9D291F0000F04BF0146B4
:1003C8000020B1FA81F308BF2033A3F10B03B3F186
:1003D80020020CDA0C3208DD02F1140CC2F10C0216
:1003E80001FA0CF021FA02F10CE002F11402D8BF74
:1003F800C2F1200C01FA02F120FA0CFCDCBF41EA40
:100408000C019040E41AA2BF01EB0451294330BD0E
:100418006FEA04041F3C1CDA0C340EDC04F11404EB
:10042800C4F1200220FA04F001FA02F340EA0300C2
:1004380021FA04F345EA030130BDC4F10C04C4F108
:10044800200220FA02F001FA04F340EA03002946E8
:1004580030BD21FA04F0294630BD94F0000F83F432
:10046800801306BF81F480110134013D4EE77FEA15
:10047800645C18BF7FEA655C29D094EA050F08BF61
:1004880090EA020F05D054EA000C04BF1946104642
:1004980030BD91EA030F1EBF0021002030BD5FEA86
:1004A800545C05D14000494128BF41F0004130BDAE
:1004B80014F580043CBF01F5801130BD01F0004502
:1004C80045F0FE4141F470014FF0000030BD7FEA75
:1004D800645C1ABF194610467FEA655C1CBF0B4670
:1004E800024650EA013406BF52EA033591EA030F87
:1004F80041F4002130BD00BF90F0000F04BF00217F
:10050800704730B54FF4806404F132044FF00005B1
:100518004FF0000150E700BF90F0000F04BF00212A
:10052800704730B54FF4806404F1320410F0004590
:1005380048BF40424FF000013EE700BF42004FEA8B
:10054800E2014FEA31014FEA02701FBF12F07F4308
:1005580093F07F4F81F06051704732F07F4208BFBF
:10056800704793F07F4F04BF41F40021704730B5C6
:100578004FF4607401F0004521F000411CE700BF12
:1005880050EA010208BF704730B54FF000050AE095
:1005980050EA010208BF704730B511F0004502D596
:1005A800404261EB41014FF4806404F132045FEA98
:1005B800915C3FF4D8AE4FF003025FEADC0C18BF41
:1005C80003325FEADC0C18BF033202EBDC02C2F133
:1005D800200300FA03FC20FA02F001FA03FE40EAC5
:1005E8000E0021FA02F11444BDE600BF70B54FF0C9
:1005F800FF0C4CF4E06C1CEA11541DBF1CEA1355A7
:1006080094EA0C0F95EA0C0F00F0DEF82C4481EA0E
:10061800030621EA4C5123EA4C5350EA013518BF2E
:1006280052EA033541F4801143F4801338D0A0FB1B
:1006380002CE4FF00005E1FB02E506F00042E0FBC8
:1006480003E54FF00006E1FB03569CF0000F18BFCE
:100658004EF0010EA4F1FF04B6F5007F64F5407476
:1006680004D25FEA4E0E6D4146EB060642EAC62109
:1006780041EA55514FEAC52040EA5E504FEACE2E76
:10068800B4F1FD0C88BFBCF5E06F1ED8BEF1004F79
:1006980008BF5FEA500E50F1000041EB045170BDF5
:1006A80006F0004646EA010140EA020081EA030139
:1006B800B4EB5C04C2BFD4EB0C0541EA045170BD35
:1006C80041F480114FF0000E013C00F3AB8014F1AF
:1006D800360FDEBF002001F0004170BDC4F10004F8
:1006E800203C35DA0C341BDC04F11404C4F1200579
:1006F80000FA05F320FA04F001FA05F240EA0200D4
:1007080001F0004221F0004110EBD37021FA04F609
:1007180042EB06015EEA430E08BF20EAD37070BDC3
:10072800C4F10C04C4F1200500FA04F320FA05F022
:1007380001FA04F240EA020001F0004110EBD37024
:1007480041F100015EEA430E08BF20EAD37070BD94
:10075800C4F1200500FA05F24EEA020E20FA04F36D
:1007680001FA05F243EA020321FA04F001F000411C
:1007780021FA04F220EA020000EBD3705EEA430E8D
:1007880008BF20EAD37070BD94F0000F0FD101F0BC
:100798000046400041EB010111F4801F08BF013CF5
:1007A800F7D041EA060195F0000F18BF704703F033
:1007B8000046520043EB030313F4801F08BF013DBA
:1007C800F7D043EA0603704794EA0C0F0CEA135576
:1007D80018BF95EA0C0F0CD050EA410618BF52EA30
:1007E8004306D1D181EA030101F000414FF0000036
:1007F80070BD50EA410606BF1046194652EA430644
:1008080019D094EA0C0F02D150EA013613D195EAB7
:100818000C0F05D152EA03361CBF104619460AD1FF
:1008280081EA030101F0004141F0FE4141F4700109
:100838004FF0000070BD41F0FE4141F4780170BDF9
:1008480070B54FF0FF0C4CF4E06C1CEA11541DBF5E
:100858001CEA135594EA0C0F95EA0C0F00F0A7F860
:10086800A4EB050481EA030E52EA03354FEA01318D
:1008780000F088804FEA03334FF0805545EA1313A0
:1008880043EA12634FEA022245EA111545EA106568
:100898004FEA00260EF000419D4208BF964244F1FF
:1008A800FD0404F5407402D25B084FEA3202B61A1E
:1008B80065EB03055B084FEA32024FF480104FF4F2
:1008C800002CB6EB020E75EB030E22BFB61A754666
:1008D80040EA0C005B084FEA3202B6EB020E75EBF9
:1008E800030E22BFB61A754640EA5C005B084FEA61
:1008F8003202B6EB020E75EB030E22BFB61A75462E
:1009080040EA9C005B084FEA3202B6EB020E75EB38
:10091800030E22BFB61A754640EADC0055EA060EF9
:1009280018D04FEA051545EA16754FEA06164FEA3C
:10093800C30343EA52734FEAC2025FEA1C1CC0D1E8
:1009480011F4801F0BD141EA00014FF000004FF075
:10095800004CB6E711F4801F04BF01430020B4F136
:10096800FD0C88BFBCF5E06F3FF6AFAEB5EB030CEE
:1009780004BFB6EB020C5FEA500C50F1000041EBEB
:10098800045170BD0EF0004E4EEA113114EB5C04B8
:10099800C2BFD4EB0C0541EA045170BD41F480118B
:1009A8004FF0000E013C90E645EA060E8DE60CEA93
:1009B800135594EA0C0F08BF95EA0C0F3FF43BAFB0
:1009C80094EA0C0F0AD150EA01347FF434AF95EA67
:1009D8000C0F7FF425AF104619462CE795EA0C0F4B
:1009E80006D152EA03353FF4FDAE1046194622E718
:1009F80050EA410618BF52EA43067FF4C5AE50EAF2
:100A080041047FF40DAF52EA43057FF4EBAE12E7E1
:100A180053B94AB9002908BF00281CBF4FF0FF315D
:100A28004FF0FF3000F00CB8ADF1080C6DE904CEC2
:100A380002F0B2FBDDF804E0DDE9022304B0704700
:100A4800704700BF4A0011D212F5001211D20DD51D
:100A58006FF47873B3EB62520ED44FEAC12343F0BC
:100A6800004343EA505323FA02F070474FF0000066
:100A7800704750EA013002D14FF0FF3070474FF015
:100A88000000704710B5054C237833B9044B13B1F7
:100A98000448AFF300800123237010BD0C00002030
:100AA800000000004034000808B5034B1BB103499F
:100AB8000348AFF3008008BD0000000010000020CC
:100AC8004034000872B6FEE700B595B03022002128
:100AD80008A8FFF755FB0023039304930593069397
:100AE80007930193204A116C41F080511164126CF4
:100AF80002F080520192019A02931C4B1A6842F448
:100B080080421A601B6803F480430293029B01230E
:100B180008934FF48033099302220E924FF4800316
:100B28000F9304231093A82111911292139308A8EC
:100B380000F0CAFD98B90F230393022304930023FE
:100B480005934FF4A05306934FF480530793052160
:100B580003A801F023F820B915B05DF804FBFFF7EE
:100B6800B1FFFFF7AFFF00BF003802400070004040
:100B780030B593B001F070FAFFF7A6FF02F0A0FAC3
:100B880001F026FF01F04AFF02F096F901F0A6FFF6
:100B9800534800F0F9FA08B1FFF794FF02215048D2
:100BA80000F04AFC08B1FFF78DFF4FF4FA6001F03E
:100BB8007FFA4C4C0AADA446BCE80F000FC59CE870
:100BC8000F0085E80F0002AD20340FCC0FC594E864
:100BD8000F0085E80F00002559E0434B002283F8F9
:100BE8007420414B1B7FDBB2FD2BF6D13E4B5B7F64
:100BF800DBB29F2BF1D13C4B00221A775A7702A91E
:100C08000AA802F0E9F9642001F052FA0134082C2C
:100C180012D8002301930093DFED340A9FED340AC4
:100C28004FF4FA631A4605F00101022002F038F881
:100C38000A2001F03DFAD4E7002101910091DFED8F
:100C48002B0A9FED2B0A4FF4FA631A46012002F093
:100C580027F80A2001F02CFA03E0234B002283F83E
:100C68007420214B1B7FDBB2FD2BF6D11E4B5B7F23
:100C7800DBB29F2BF1D11C4B00221A775A7702A9BD
:100C88000AA802F0A9F9642001F012FA0135082D2A
:100C980001D80024BBE7002001900090DFED150A81
:100CA8009FED150A4FF47A731A46012101F0F8FFF7
:100CB8000A2001F0FDF903E00B4B002283F87420B1
:100CC800094B1B7FDBB2FD2BF6D1074B5B7FDBB2F9
:100CD8009F2BF1D1044B00221A775A77FEE700BF09
:100CE80030000020583400085800002000009042CE
:100CF8000000FA440000344400007A44FEE7FEE7AE
:100D0800FEE7FEE7FEE770477047704708B501F059
:100D1800BDF908BD08B50E4BA3F11C0200210D4812
:100D280000F0D5FA78B90C4B1B69DBB205E00A4A2A
:100D38001A44002111770133DBB2072BF7D9064B90
:100D4800012283F87420034800F095FB08BD00BF1A
:100D580074000020300000205800002008B5564BD1
:100D68001B6913F0020F1DD0534A136923F00203C5
:100D78001361524B1B78DBB2012B09D0022B2AD00E
:100D880000214F4801F0ECFC4C4B00221A7009E09E
:100D98004C4B1B684C4A12681344474A5363474BF1
:100DA80002221A70444B1B6913F0040F25D0424AE3
:100DB800136923F004031361404B5B78DBB2012B0A
:100DC80011D0022B32D004213D4801F0C9FC3B4B25
:100DD80000225A7011E00021394801F0C1FC374B5C
:100DE80000221A70DEE7374B5B68374A52681344B3
:100DF800314A9363314B02225A702F4B1B6913F00F
:100E0800080F25D02C4A136923F0080313612B4BD4
:100E18009B78DBB2012B11D0022B32D00821284855
:100E280001F09EFC254B00229A7011E00421244811
:100E380001F096FC214B00225A70DEE7214B9B689B
:100E4800214A926813441C4AD3631C4B02229A70AD
:100E5800194B1B6913F0100F25D0174A136923F09B
:100E680010031361154BDB78DBB2012B11D0022B79
:100E78001AD00C21124801F073FC104B0022DA70D2
:100E880011E008210E4801F06BFC0C4B00229A700F
:100E9800DEE70C4BDB680C4AD2681344064A13643D
:100EA800064B0222DA7008BD0C21054801F058FCF7
:100EB800024B0022DA70F6E7000001401C01002016
:100EC800D0000020300100202001002082B0002145
:100ED80000910B4B5A6C42F480425A645A6C02F4EB
:100EE80080420092009A01911A6C42F080521A6472
:100EF8001B6C03F080530193019B02B0704700BF45
:100F080000380240002800F0A18038B5044690F867
:100F18002030D3B12268136843F00103136001F055
:100F2800C1F8054623685A6812F0010F10D101F084
:100F3800B9F8401B0A28F5D9636A43F400336362A1
:100F4800052384F82030012038BD01F087FDE1E752
:100F58001A6822F002021A6001F0A4F80546236814
:100F68005A6812F0020F0DD001F09CF8401B0A28B5
:100F7800F5D9636A43F400336362052384F82030AB
:100F88000120E1E7227E012A3DD01A6822F0800282
:100F98001A60637E012B3BD02268136823F040035C
:100FA8001360A37E012B39D02268136823F0200335
:100FB8001360E37E012B37D02268136843F01003D7
:100FC8001360237F012B35D02268136823F00803B0
:100FD8001360637F012B33D02268136823F0040366
:100FE8001360A368E26813432269134362691343D9
:100FF8006268013A21681343CB61002060620123D3
:1010080084F82030A0E71A6842F080021A60C0E72E
:101018002268136843F040031360C2E7226813682C
:1010280043F020031360C4E72268136823F0100319
:101038001360C6E72268136843F008031360C8E723
:101048002268136843F004031360CAE7012070475D
:1010580090F82030013BDBB2012B05D9436A43F4F9
:10106800802343620120704730B5464BD3F80022F5
:1010780042F00102C3F80022D3F8002222F47C5285
:10108800C3F80022D3F80022486A42EA0022C3F8D3
:1010980000224A6902F01F02012000FA02F2D3F886
:1010A8001C026FEA020C20EA0200C3F81C02CB699A
:1010B800C3B9344BD3F80C020CEA0000C3F80C0295
:1010C8008C884869CD6844EA0544483043F8304084
:1010D8008C68088840EA04404C6904F1480E03EB28
:1010E800CE035860CB69012B1ED08B69002B33D1FE
:1010F8002448D0F804320CEA0303C0F804320B6920
:101108008BBB2048D0F814320CEA0303C0F8143221
:101118000B6A012B2ED01B4AD2F8003223F00103B0
:10112800C2F80032002030BD164BD3F80C02104331
:10113800C3F80C028C8848690D6844EA05444830B5
:1011480043F8304088894C698D6840EA0540483446
:1011580003EBC4035860C8E70A48D0F804321343C5
:10116800C0F80432CBE70748D0F814321343C0F86C
:101178001432CDE70349D1F81C321343C1F81C32AD
:10118800C9E700BF0064004070B5044690F82050DD
:10119800EDB2012D06D0436A43F4002343620125D2
:1011A800284670BD022380F820300268136823F0B7
:1011B8000103136000F076FF064623685B6813F0AE
:1011C800010F0CD000F06EFF831B0A2BF5D9636A60
:1011D80043F400336362052384F82030E0E70025F8
:1011E8006562DDE730B590F820C00468A4680CF1AA
:1011F800FF3C5FFA8CFCBCF1010F62D814F0E05F91
:1012080059D0C4F3016C012404FA0CF41C608B68F7
:10121800002B3DD10D68CB68046843EA45550CF1B5
:1012280018031B01E55003680C690CF1180E03EB59
:101238000E135C600B7D012B35D0D17993791B049B
:1012480043EA0163517943EA01231479016823438E
:1012580001EB0C11C1F88C31D17893781B0443EA67
:101268000163517843EA0123117802680B4302EBCA
:101278000C12C2F8883102680CF1180C4FEA0C1CE9
:1012880052F80C3043F0010342F80C3000201DE006
:101298004C6843EAC403CC6823430CF118042401C6
:1012A80005682B51BFE7036803EB0E13596841F437
:1012B80080715960C1E7436A43F400134362012017
:1012C80004E0436A43F480234362012030BD90F870
:1012D80020C00CF1FF3C5FFA8CFCBCF1010F00F25E
:1012E800A58030B451B90468E46814F0030F10D134
:1012F800436A43F40013436201207EE004682469D2
:1013080014F0030F05D1436A43F40013436201202C
:1013180073E0056801F11B0424012C5904F004044E
:101328009460002C6BD1056801F11B0424012C5931
:10133800640D1460046801F11B0C4FEA0C1C54F88E
:101348000C4004F00204D4600468A444DCF804509F
:1013580015F0080F5BD008241461046801F11B0C18
:1013680004EB0C146468C4F307249461046804EB68
:101378000C146468240C5461026802EB0112D2F860
:10138800B8211A70026802EB0112D2F8B821C2F330
:1013980007225A70026802EB0112D2F8B821C2F390
:1013A80007429A70026802EB0112D2F8B821120EB5
:1013B800DA70026802EB0112D2F8BC211A710268D5
:1013C80002EB0112D2F8BC21C2F307225A7102685B
:1013D80002EB0112D2F8BC21C2F307429A710268EB
:1013E80002EB0112D2F8BC21120EDA71C1B90268FF
:1013F800D36843F02003D360002030BC70470568F1
:1014080001F11B0424012C59E408546092E701F10E
:101418001B0504EB0514646804F00F0414619CE7D1
:101428000268136943F020031361E5E7436A43F454
:10143800802343620120704790F82030013BDBB2E3
:10144800012B05D9436A43F4802343620120704786
:10145800026853690B435361002070477047704717
:1014680070477047704770477047704770477047BC
:101478007047704770472DE9F84F054603685C6967
:10148800D3F804809F68D3F80CA0D3F81090D3F851
:1014980018B014F001063BD017F0010616D001224F
:1014A8009A6017F0020F08D117F0040F0CD117F04B
:1014B800080606D04FF4805608E0FFF7CFFF002655
:1014C80004E0FFF7CEFF01E04FF4006617F4807FD9
:1014D8000DD02B684FF480729A6017F4007F40F0AB
:1014E800968017F4806F00F0968046F4005617F443
:1014F800803F0DD02B684FF480329A6017F4003F7C
:1015080040F0938017F4802F00F0938046F4004653
:1015180014F0080F07D01AF0100F04D046F4007624
:101528002B681022DA6014F0040F03D01AF0080FA9
:1015380040F0898014F0020F05D02B68DB6813F0A7
:10154800030F40F0878014F0400F07D019F0100FF8
:1015580004D046F480662B6810221A6114F0200F1C
:1015680002D019F0080F79D114F0100F04D02B68AD
:101578001B6913F0030F78D114F4003F02D018F060
:10158800100F76D114F4803F02D018F0080F77D1ED
:1015980014F4004F37D018F0040F31D014F4807FC2
:1015A80004D01BF0010F01D046F0010614F4007FAF
:1015B80004D01BF0020F01D046F0020614F4806F2D
:1015C80004D01BF0040F01D046F0040614F4006F99
:1015D80016D01BF0700B13D0BBF1400F66D056D855
:1015E800BBF1200F5CD0BBF1300F5CD0BBF1100F0A
:1015F80001D146F008062A68936923F070039361C5
:101608002B6804225A60002E56D1BDE8F88F284670
:10161800FFF725FF6BE717F4006F02D046F480460A
:1016280065E72846FFF71EFF61E72846FFF718FF22
:101638006EE717F4002F02D046F4803668E7284694
:10164800FFF711FF64E72B680822DA602846FFF7E6
:101658000CFF6FE72846FFF707FF74E72B6808229F
:101668001A612846FFF703FF7EE72846FFF7FEFECC
:1016780082E72B6810225A602846FFF7F9FE81E7B7
:101688002B6808225A602846FFF7F3FE80E7BBF173
:10169800500F0ED0BBF1600FADD146F48076AAE7AB
:1016A80046F01006A7E746F02006A4E746F04006F5
:1016B800A1E746F080069EE76B6A33436B622846D3
:1016C800FFF7D8FEA1E70000002800F0E08170B520
:1016D80082B00446036813F0010F3BD09F4B9B6810
:1016E80003F00C03042B2CD09C4B9B6803F00C03D9
:1016F800082B21D06368B3F5803F4FD0B3F5A02FF6
:1017080052D0964B1A6822F480321A601A6822F472
:1017180080221A606368002B50D000F0C3FC054695
:101728008E4B1B6813F4003F14D100F0BBFC401B28
:101738006428F5D90320B1E1884B5B6813F4800F66
:10174800D8D0864B1B6813F4003F03D06368002B86
:1017580000F09F81236813F0020F54D07F4B9B68E1
:1017680013F00C0F3ED07D4B9B6803F00C03082B45
:1017780033D0E368002B68D0794B01221A6000F05F
:1017880091FC0546754B1B6813F0020F54D100F00D
:1017980089FC401B0228F5D903207FE16F4A1368B2
:1017A80043F480331360B5E76C4B1A6842F4802227
:1017B8001A601A6842F480321A60ABE700F072FCD3
:1017C8000546664B1B6813F4003FC3D000F06AFC63
:1017D800401B6428F5D9032060E1604B5B6813F473
:1017E800800FC6D15D4B1B6813F0020F03D0E3686E
:1017F800012B40F05081594A136823F0F8032169FE
:1018080043EAC1031360236813F0080F42D06369E9
:101818006BB3534B0122C3F8802E00F043FC0546FE
:101828004E4B5B6F13F0020F34D100F03BFC401BB2
:101838000228F5D9032031E1484A136823F0F80358
:10184800216943EAC1031360DDE7454B00221A60B2
:1018580000F028FC0546414B1B6813F0020FD2D05C
:1018680000F020FC401B0228F5D9032016E13C4B70
:101878000022C3F8802E00F015FC0546374B5B6F3D
:1018880013F0020F06D000F00DFC401B0228F5D91A
:10189800032003E1236813F0040F77D02F4B1B6C50
:1018A80013F0805F33D1002301932C4B1A6C42F064
:1018B80080521A641B6C03F080530193019B01252D
:1018C800284B1B6813F4807F23D0A368012B34D0E6
:1018D800052B38D0214B1A6F22F001021A671A6FB4
:1018E80022F004021A67A368002B3DD000F0DAFB4F
:1018F80006461A4B1B6F13F0020F46D100F0D2FBBD
:10190800801B41F288339842F3D90320C6E00025B2
:10191800D6E7144A136843F48073136000F0C2FBDF
:101928000646104B1B6813F4807FCED100F0BAFB3B
:10193800801B0228F5D90320B0E0084A136F43F052
:1019480001031367CFE7054B1A6F42F004021A67C9
:101958001A6F42F001021A67C5E700BF003802405B
:10196800000047420070004000F09CFB0646524BC6
:101978001B6F13F0020F08D000F094FB801B41F29C
:1019880088339842F3D9032088E0EDB9A369002B86
:1019980000F08380484A926802F00C02082A51D06D
:1019A800022B17D0454B00221A6600F07BFB044639
:1019B800414B1B6813F0007F42D000F073FB001B03
:1019C8000228F5D9032069E03B4A136C23F08053C1
:1019D8001364DBE7394B00221A6600F063FB054607
:1019E800354B1B6813F0007F06D000F05BFB401BF3
:1019F8000228F5D9032051E0E369226A1343626A99
:101A080043EA8213A26A5208013A43EA0243E26AAD
:101A180043EA0263284A5360284B01221A6600F001
:101A280041FB0446244B1B6813F0007F06D100F0ED
:101A380039FB001B0228F5D903202FE000202DE0F8
:101A480000202BE0012B2BD01B4B5B6803F480019B
:101A5800E269914226D103F03F02216A8A4223D1EA
:101A6800616A47F6C0721A40B2EB811F1ED103F4B7
:101A78004031A26A5208013AB1EB024F18D103F083
:101A88007063E26AB3EB026F14D1002006E0012014
:101A98007047012002E0012000E0002002B070BD84
:101AA8000120FBE70120F9E70120F7E70120F5E72E
:101AB8000120F3E70120F1E7003802400000474227
:101AC80008B5334B9B6803F00C03042B5BD0082B41
:101AD8005BD12F4B5A6802F03F025B6813F4800F0A
:101AE8002CD02B4B5868C0F388104FEA401CBCEB35
:101AF800000C6EEB0E0E4FEA8E1343EA9C634FEA1E
:101B08008C11B1EB0C0163EB0E03DB0043EA51735C
:101B1800C90011EB000C43F10003590200234FEAFE
:101B28004C2041EADC51FEF773FF194B5B68C3F3A5
:101B3800014301335B00B0FBF3F008BD144B586858
:101B4800C0F388104FEA401CBCEB000C6EEB0E0E85
:101B58004FEA8E1343EA9C634FEA8C11B1EB0C01F8
:101B680063EB0E03DB0043EA5173C90011EB000C71
:101B780043F10003990200234FEA8C2041EA9C516B
:101B8800FEF746FFD1E70348D7E70348D5E700BF8C
:101B98000038024000127A000024F400002800F007
:101BA8009B8070B50D4604464F4B1B6803F0070336
:101BB8008B4208D2CBB24C4A1370136803F0070368
:101BC8008B4240F08B80236813F0020F17D013F07C
:101BD800040F04D0454A936843F4E05393602368A4
:101BE80013F0080F04D0414A936843F460439360AC
:101BF8003E4A936823F0F003A1680B43936023687F
:101C080013F0010F32D06368012B21D09A1E012AEC
:101C180025D9364A126812F0020F61D033498A6812
:101C280022F0030213438B6000F03CFA06462F4B68
:101C38009B6803F00C036268B3EB820F16D000F0C8
:101C480031FA801B41F288339842F0D9032042E0F0
:101C5800264A126812F4003FE0D101203BE0234AF3
:101C6800126812F0007FD9D1012034E01E4B1B68A6
:101C780003F00703AB4207D9EAB21B4B1A701B6883
:101C880003F00703AB422DD1236813F0040F06D0ED
:101C9800164A936823F4E053E1680B439360236882
:101CA80013F0080F07D0114A936823F460432169A1
:101CB80043EAC1039360FFF703FF0C4B9B68C3F330
:101CC80003130B4AD35CD8400A4B18600A4B1868B8
:101CD80000F09CF9002070BD012070470120FAE750
:101CE8000120F8E70120F6E7003C024000380240F6
:101CF800A03400080800002004000020014B1868E8
:101D0800704700BF0800002008B5FFF7F7FF044B35
:101D18009B68C3F34233034AD35CD84008BD00BF75
:101D2800003802409834000800230F2B00F2E980A5
:101D380070B582B065E085684FEA430E032404FA63
:101D48000EF425EA0405CC6804FA0EF42C438460EA
:101D5800446824EA02044A68C2F300129A40224303
:101D680042605CE0DC08083450F8242003F00705E2
:101D7800AD004FF00F0E0EFA05FE22EA0E0E0A69AC
:101D8800AA4042EA0E0240F824205CE0072200E064
:101D9800002202FA0EF22A4302345A4D45F8242052
:101DA800594A94686FEA0C0224EA0C054E6816F446
:101DB800801F01D04CEA0405534CA560E46802EA90
:101DC80004054E6816F4001F01D04CEA04054E4C79
:101DD800E560646802EA04054E6816F4003F01D025
:101DE8004CEA0405484C6560246822404D6815F4A7
:101DF800803F01D04CEA0402434C226001330F2B90
:101E08007DD801229A400C6804EA020C32EA0404E4
:101E1800F4D14C6804F00304013C012C8BD94A68C6
:101E280002F00302032A09D0C4685D000322AA4015
:101E380024EA02048A68AA402243C2604A6802F07F
:101E48000302022A8ED004684FEA430E032202FAE4
:101E58000EF224EA02044A6802F0030202FA0EF2C1
:101E6800224302604A6812F4403FC7D00022019220
:101E7800264A546C44F480445464526C02F4804200
:101E88000192019A9C08A51C1E4A52F8255003F09D
:101E9800030E4FEA8E0E0F2202FA0EF225EA020511
:101EA8001B4A90423FF474AF02F5806290421AD008
:101EB80002F58062904218D002F58062904216D0F6
:101EC80002F58062904214D002F58062904212D0EE
:101ED80002F58062904210D002F5806290423FF491
:101EE80055AF082255E7012253E7022251E70322A2
:101EF8004FE704224DE705224BE7062249E702B0E7
:101F080070BD704700380140003C01400038024075
:101F180000000240002807DB00F01F0240090123EF
:101F28009340024A42F82030704700BF00E100E0C9
:101F3800002808DB0901C9B200F1604000F56140E2
:101F480080F80013704700F00F000901C9B2014B77
:101F58001954704714ED00E000B500F00700C0F117
:101F6800070CBCF1040F28BF4FF0040C031D062B0F
:101F78000FD9C31E4FF0FF3E0EFA0CF021EA000104
:101F880099400EFA03FE22EA0E0241EA02005DF8C9
:101F980004FB0023EEE70000074AD36823F4E0635C
:101FA8001B041B0C000200F4E060034343F0BF6312
:101FB80043F40033D360704700ED00E010B50446E9
:101FC800054BD868C0F30220FFF7C6FF014620463C
:101FD800FFF7AEFF10BD00BF00ED00E008B5FFF74A
:101FE80099FF08BD0138B0F1807F0BD24FF0E02394
:101FF8005861054AF02182F82310002098610722D1
:102008001A6170470120704700ED00E010B50446E2
:102018000E4B1A784FF47A73B3FBF2F30C4A10683C
:10202800B0FBF3F0FFF7DEFF68B90F2C01D90120F0
:102038000AE0002221464FF0FF30FFF7BFFF054BB3
:102048001C60002000E0012010BD00BF000000203F
:10205800080000200400002008B50B4B1A6842F461
:1020680000721A601A6842F480621A601A6842F4B0
:1020780080721A600320FFF78FFF0120FFF7C6FF69
:10208800FEF724FF002008BD003C0240034A116807
:10209800034B1B780B441360704700BF28000020D7
:1020A80000000020014B1868704700BF280000207E
:1020B80038B50446FFF7F6FF0546B4F1FF3F02D0F6
:1020C800044B1B781C44FFF7EDFF401BA042FAD3DA
:1020D80038BD00BF0000002030B4036A026A22F055
:1020E800010202624268846924F0730C0C6844EAB5
:1020F8000C0423F0020C8B6843EA0C03114DA84230
:1021080003D005F58065A84205D123F00803CD6802
:102118002B4323F004030B4DA84203D005F580653B
:10212800A84207D122F440724D6945EA020C8A6937
:1021380042EA0C02426084614A684263036230BC2E
:10214800704700BF0000014030B4036A026A22F4FD
:10215800807202624268C46924F0730C0C6844EA15
:102168000C0523F400738C6843EA0423114CA04245
:1021780003D004F58064A04206D123F40063CC6840
:1021880043EA042323F480630A4CA04203D004F5F5
:102198008064A04207D122F440524C6942EA0412FA
:1021A8008C6942EA04124260C5614A68C2630362EC
:1021B80030BC70470000014030B4036A026A22F460
:1021C800805202624468C26922F4E6420D6842EA1B
:1021D800052223F400538D6843EA0533094DA842CC
:1021E80003D005F58065A84204D124F480444D69E4
:1021F80044EA85144460C2614A680264036230BCE0
:10220800704700BF0000014010B4036A046A24F05C
:1022180001040462846924F0F00C4CEA021223F0F1
:102228000A030B43826103625DF8044B704710B4E4
:10223800036A046A24F010040462846924F4704C6C
:102248004CEA023223F0A00343EA011382610362DD
:102258005DF8044B7047836823F070030B4343F029
:1022680007038360704770470368324A904212D070
:10227800B0F1804F0FD0A2F57C4290420BD002F50E
:102288008062904207D002F58062904203D002F546
:102298007842904203D123F070034A681343254AD9
:1022A80090422AD0B0F1804F27D0A2F57C429042CC
:1022B80023D002F5806290421FD002F580629042DE
:1022C8001BD002F57842904217D002F57052904226
:1022D80013D002F5806290420FD002F580629042DE
:1022E8000BD0A2F59832904207D002F58062904256
:1022F80003D002F58062904203D123F44073CA6888
:10230800134323F080034A6913438A68C2620A6848
:102318008262084A904203D002F58062904201D15D
:102328000A690263026842F0040202600122426103
:10233800036070470000014040B310B5044690F8B0
:102348003D30F3B1022384F83D30214651F8040BA7
:10235800FFF78AFF012384F8463084F83E3084F87A
:102368003F3084F8403084F8413084F8423084F8B3
:10237800433084F8443084F8453084F83D300020F8
:1023880010BD80F83C3000F047FDDBE701207047C6
:1023980040B310B5044690F83D30F3B1022384F8F9
:1023A8003D30214651F8040BFFF75EFF012384F806
:1023B800463084F83E3084F83F3084F8403084F862
:1023C800413084F8423084F8433084F8443084F84B
:1023D800453084F83D30002010BD80F83C30FFF7D0
:1023E80042FFDBE70120704730B4036A026A22F03B
:1023F800100202624468826922F4E6420D6842EAE9
:10240800052223F020038D6843EA0513114DA842E5
:1024180003D005F58065A84206D123F08003CD6876
:1024280043EA051323F040030A4DA84203D005F5FB
:102438008065A84207D124F440644D6944EA8504C4
:102448008D6944EA8504446082614A688263036254
:1024580030BC70470000014090F83C30012B28D078
:1024680010B50446012380F83C300C2A1CD8DFE85C
:1024780002F0071B1B1B0C1B1B1B111B1B1B160035
:102488000068FFF729FE00200FE00068FFF7ACFFA7
:1024980000200AE00068FFF757FE002005E000680A
:1024A800FFF78AFE002000E00120002384F83C307A
:1024B80010BD0220704710B4846824F47F4C42EAAF
:1024C80003220A4342EA0C0282605DF8044B70471B
:1024D80090F83C30012B78D010B50446012380F8E1
:1024E8003C30022380F83D300268936823F47F4330
:1024F80023F0770393600B68602B4CD023D8402BD4
:1025080054D011D8202B03D00AD80BB1102B05D1E9
:1025180019462068FFF79FFE002028E0012026E0EA
:10252800302BF5D0012022E0502B0AD1CA68496827
:102538000068FFF769FE50212068FFF78CFE002035
:1025480015E0012013E0B3F5805F3AD0B3F5005FE2
:1025580014D0702B37D1CB684A6889680068FFF7B8
:10256800AAFF2268936843F0770393600020012351
:1025780084F83D30002384F83C3010BDCB684A68AD
:1025880089680068FFF797FF2268936843F48043DF
:1025980093600020EBE7CA6849680068FFF747FEC8
:1025A80060212068FFF757FE0020E0E7CA68496805
:1025B8000068FFF729FE40212068FFF74CFE002045
:1025C800D5E70020D3E70120D1E70220704701F0CA
:1025D8001F014FF0010C0CFA01FC036A23EA0C03FB
:1025E8000362036A8A4013430362704710B50446C6
:1025F8000846002948D194F83E30DBB2013B18BFA9
:102608000123002B40F0A380002856D1022384F830
:102618003E302268D36843F00203D36001220146AA
:102628002068FFF7D4FF23684C4A934203D002F591
:102638008062934203D15A6C42F400425A64236880
:10264800464A934278D0B3F1804F75D0A2F57C42C8
:10265800934271D002F5806293426DD002F5806298
:10266800934269D002F57842934265D002F57052E0
:10267800934261D0A2F5943293425DD01A6842F039
:1026880001021A60002061E0042908D008290DD051
:1026980094F84130DBB2013B18BF0123B1E794F84D
:1026A8003F30DBB2013B18BF0123AAE794F8403062
:1026B800DBB2013B18BF0123A3E7042824D0082874
:1026C8002BD0022384F841300C2842D801A353F8B8
:1026D80020F000BF1B2600085B2700085B270008C6
:1026E8005B270008172700085B2700085B270008FE
:1026F8005B270008292700085B2700085B270008DC
:102708005B27000835270008022384F83F30226839
:10271800D36843F00403D36080E7022384F8403091
:102728002268D36843F00803D36077E72268D36848
:1027380043F01003D36071E79A6802F00702062A93
:1027480009D01A6842F001021A60002010BD012069
:10275800FCE70120FAE70020F8E700BF000001408D
:1027680038B505460C460C2963D8DFE801F0076246
:1027780062622E626262346262623A000268D36800
:1027880023F00203D360002221462868FFF71FFFC9
:102798002B68294A93422AD002F58062934226D0B8
:1027A8002B68196A41F21112114208D1196A40F2D4
:1027B8004442114203D11A6822F001021A602CBB6C
:1027C800012385F83E30002034E00268D36823F006
:1027D8000403D360D7E70268D36823F00803D36003
:1027E800D1E70268D36823F01003D360CBE7196AF6
:1027F80041F211121142D3D1196A40F244421142F6
:10280800CED15A6C22F400425A64C9E7042C06D08F
:10281800082C09D0012385F8413000200AE0012363
:1028280085F83F30002005E0012385F8403000207E
:1028380000E0012038BD00BF0000014090F83C20B6
:10284800012A3DD010B40346012280F83C20022220
:1028580080F83D2002685068946820F0700C086881
:1028680040EA0C0050601A68164882421AD0B2F149
:10287800804F17D0A0F57C40824213D000F58060CD
:1028880082420FD000F5806082420BD000F578407C
:10289800824207D000F57050824203D0A0F59430F0
:1028A800824204D124F080044968214391600122C6
:1028B80083F83D20002083F83C005DF8044B704706
:1028C8000220704700000140024690F83C30012B7E
:1028D80021D0012380F83C30CB6823F4407388680A
:1028E800034323F480634868034323F400630868C0
:1028F800034323F480530869034323F400534869CE
:10290800034323F48043C9690B4311684B640020D7
:1029180082F83C007047022070470000034AD2F852
:10292800883043F47003C2F88830704700ED00E047
:10293800224B9B6803F00C03042B11D0082B13D0F7
:10294800002B37D11E4B1F4A1A601C4B9B68C3F3E0
:1029580003131D4AD15C1A4A1368CB4013607047B1
:10296800174B1A4A1A60F0E7144B59685A6802F074
:102978003F0211F4800F13D0144BB3FBF2F30F4A4C
:102988005268C2F3881202FB03F30C4A5268C2F37E
:10299800014201325200B3FBF2F3094A1360D4E753
:1029A800084BB3FBF2F3054A5268C2F3881202FBE4
:1029B80003F3EAE7024B034A1A60C6E7003802400D
:1029C800080000200024F400A034000800127A0057
:1029D80084B000220192104B196B41F080011963F9
:1029E800196B01F08001019101990292196B41F074
:1029F80010011963196B01F01001029102990392F9
:102A08001A6B42F001021A631B6B03F00103039374
:102A1800039B04B0704700BF0038024008B50D485A
:102A28000D4B03600E23436000238360C3604FF4A3
:102A38004032026143610376012242768376C3768F
:102A480003774377FEF75EFA00B908BDFEF73AF858
:102A5800FBE700BF300000200064004010B588B0DC
:102A68000023039304930593069307930268194B75
:102A78009A4201D008B010BD0024019403F5EA334E
:102A88001A6C42F000721A641A6C02F00072019219
:102A9800019A02941A6B42F001021A631B6B03F04D
:102AA80001030293029B4FF4C05303930223049340
:102AB800032306930923079303A90748FFF734F96B
:102AC800224621461420FFF779FA1420FFF786FAE8
:102AD800D0E700BF006400400000024000B58FB09E
:102AE80000228DF80F209DF80F305B09ADF80A30F1
:102AF8009DF80F30DB029BB243F00403ADF80C30B5
:102B08008DF80E209DF80E305B09ADF806309DF863
:102B18000E30DB029BB243F00403ADF80830099293
:102B28000A9201210B91BDF80A309BB20493BDF8BB
:102B38000C309BB20593BDF806309BB20693BDF8E6
:102B480008309BB2079308920C910D9204A904488F
:102B5800FEF77EFA0028F9D10FB05DF804FB00BF3C
:102B68003000002010B582B0044600238DF80730ED
:102B78008DF806308DF805308DF804308DF8033067
:102B88008B1EDBB28DF8063013E09DF8053001335B
:102B98003F4AD3643F4A404BA2F118013F48FEF731
:102BA80021FB0028F6D19DF803300133DBB28DF804
:102BB80003309DF80720D2B29DF80630DBB29A4266
:102BC80064D29DF806309DF807209B1ADBB28DF879
:102BD80005302F4B0021D96320789DF8032042EA65
:102BE80000221A646278D2B283F8542004225A640C
:102BF80099649DF80530DBB2072B22D88DF80410B4
:102C08009DF80420D2B29DF80530DBB29A42BCD2BE
:102C18009DF8073002339DF804100131E25CD2B20E
:102C28001B4B0B4483F854209DF804300133DBB26E
:102C38008DF804309DF807300133DBB28DF807308A
:102C4800DEE700238DF804309DF80430DBB2062B54
:102C580018D89DF8073002339DF804100131E25C62
:102C6800D2B20B4B0B4483F854209DF80430013347
:102C7800DBB28DF804309DF807300133DBB28DF8F4
:102C88000730E1E7024B0822DA6483E702B010BD9F
:102C980058000020AC0000202C000020300000204C
:102CA800F0B52DED028B89B007460E4615461C4639
:102CB800F0EE408AB0EE608A202200216846FDF7D7
:102CC8005FFAF2EE047A28EEA70AB5EEC00AF1EE32
:102CD80010FA4ADDBCEEC00A10EE103A1FFA83FE65
:102CE800F2EE047A68EE270AF5EEC00AF1EE10FA61
:102CF80044DDFCEEE07A17EE90CA8DF80070FD23F3
:102D08008DF801308DF802602B0A8DF803308DF8AC
:102D18000450230A8DF805308DF806404FEA1E232B
:102D28008DF807308DF808E04FEA1C638DF80930FC
:102D3800CCF307438DF80A30CCF307238DF80B301A
:102D48008DF80CC09DF840308DF80D309DF844305A
:102D58008DF80E306B238DF80F3010216846FFF781
:102D680001FF09B0BDEC028BF0BDB1EE400ABCEE2C
:102D7800C00A10EE103A1FFA83FEB1E7F1EE600ABE
:102D8800FCEEE07A17EE90CAB7E7000000000000FA
:102D980038B555EC104B1C4B1B68DBB11A4B186847
:102DA800FDF7AAFB22462B46FDF720FC14A3D3E926
:102DB8000023FDF745FD0022144BFDF761FA00F0F2
:102DC800CDF94FF0FF3282424FF000038B4100D221
:102DD800104638BDFEF798FF58B10D4A926812F4B4
:102DE800004F03D04300084A1360D7E7064A106033
:102DF800D4E7084B1A68044B1A60CFE7AFF300809A
:102E08000000000080842E41180100200000E03FEF
:102E1800003802400800002002680E4B9A4200D099
:102E2800704700B583B00021019103F59C335A6CBB
:102E380042F001025A645B6C03F001030193019BA9
:102E48000A461B20FFF7BAF81B20FFF7C7F803B0A4
:102E58005DF804FB0000014000B587B00023019332
:102E680002930393049305930268104B9A4202D08D
:102E780007B05DF804FB002300930D4B1A6B42F07A
:102E880010021A631B6B03F010030093009B4FF4AE
:102E9800D44301930223029303230493012305934C
:102EA80001A90448FEF740FFE2E700BF0000014027
:102EB800003802400010024010B596B00024129469
:102EC8001394149415941094119409940A940B94DF
:102ED8000C940D940E940F942022214601A8FDF71E
:102EE8004FF93B483B4B0360446084604FF6FF73E7
:102EF800C360046144618461FFF71EFA00284BD166
:102F08004FF48053129312A93148FFF7E1FA0028D1
:102F180045D12F48FFF73CFA002843D100231093EE
:102F2800119310A92A48FFF789FC00283DD13023C6
:102F3800099300220A920B920C920D920E920F9214
:102F480009A92348FFF788FA002831D1042209A9E2
:102F58001F48FFF781FA70BB082209A91C48FFF730
:102F68007BFA58BB0C2209A91948FFF775FA40BB30
:102F78000023019302930393049305934FF40052A3
:102F88000692089301A91248FFF79EFCE0B9104881
:102F9800FFF762FF16B010BDFDF794FDB0E7FDF72F
:102FA80091FDB6E7FDF78EFDB8E7FDF78BFDBEE7AF
:102FB800FDF788FDCAE7FDF785FDCDE7FDF782FD42
:102FC800D0E7FDF77FFDD3E7FDF77CFDDFE700BF26
:102FD800D000002000000140F8B507460E46002446
:102FE80015E0E50007EBC40393ED000BFFF7D0FEF7
:102FF8002E4B43F82400354495ED000BFFF7C8FE2F
:103008002B4B43F824002B4B01221A551444032C54
:10301800E7DD294B1B68196A41F21112114208D1E8
:10302800196A40F24442114203D11A6822F001029F
:103038001A60214C236800255D6229462046FFF767
:103048008FFB04212046FFF78BFB08212046FFF762
:1030580087FB0C212046FFF783FB184B1A6922F0E7
:103068001E021A6172B6114A116859635168996350
:103078009168D963D2681A6429462046FFF7B6FAE0
:1030880004212046FFF7B2FA08212046FFF7AEFADE
:103098000C212046FFF7AAFA23686FF001021A6193
:1030A8001A6842F001021A6062B6F8BD30010020C9
:1030B800200100201C010020D00000200000014059
:1030C80008B5FFF735FC0D4B1A680D4B9B68C3F329
:1030D8004233043B032B03D8DFE803F00E0C0A0548
:1030E800084B1A6003E012095200064B1A6008BD2B
:1030F800D208F9E79208F7E75208F5E70800002038
:103108000038024018010020DFF834D0FFF706FC31
:103118000C480D490D4A002302E0D458C45004332A
:10312800C4188C42F9D30A4A0A4C002301E0136000
:103138000432A242FBD3FDF775F8FDF719FD70477D
:1031480000000220000000200C000020C03400080D
:103158000C00002040010020FEE70000D0B50C4B19
:10316800002206460F46FDF741FAFDF76BFC0446C0
:10317800FDF7C2F9074B0022FDF738FA02460B4665
:1031880030463946FDF77AF8FDF75CFC2146D0BD9C
:103198000000F03D0000F0412DE9F04786468C46DE
:1031A8000846089E154674461946002B40F0C28012
:1031B8008542B2FA82F245D94AB1C2F1200300FA37
:1031C80002FC2EFA03F3954043EA0C0C94404FEAB4
:1031D800154EA8B2BCFBFEF8230C0EFB18CC08FB5E
:1031E80000F943EA0C43994528D9EB1808F1FF3751
:1031F80004D2994502D9A8F102072B44A3EB09038D
:10320800A4B2B3FBFEFC0EFB1C330CFB00F044EA3B
:103218000344A04214D92C190CF1FF3304D2A04264
:1032280002D9ACF102032C44241A43EA07401EB128
:10323800D440002334607360BDE8F0874746DDE77B
:103248006346F1E792BB431B01214FEA154EAFB22B
:10325800B3FBFEFC200C0EFB1C330CFB07F840EA0A
:103268000343984562D9EB180CF1FF3004D2984516
:1032780002D9ACF102002B44A3EB0803A4B2B3FBC0
:10328800FEFC0EFB1C330CFB07F744EA0344A74281
:103298004ED92C190CF1FF3304D2A74202D9ACF154
:1032A80002032C44E41B43EA0040C0E7C2F12003B8
:1032B80020FA03F1954090402EFA03F303434FEAB6
:1032C800154EAFB2B1FBFEFC0EFB1C10190C0CFB2B
:1032D80007F841EA0041884504FA02F422D969183E
:1032E8000CF1FF3004D2884502D9ACF10200294420
:1032F800A1EB08019BB2B1FBFEFC0EFB1C110CFB01
:1033080007F743EA01439F420ED9EB180CF1FF314E
:1033180004D29F4202D9ACF102012B44DB1B41EAE3
:10332800004192E76046E3E76146F7E76046A3E7B6
:103338006346B7E7834206D916B9002108467BE7FA
:10334800C6E900E0F9E7B3FA83F78FB9834201D3FE
:10335800724508D8BEEB020460EB030301209C46CB
:103368001EB9002168E73846FAE7C6E9004CF8E7D5
:10337800C7F1200CBB4022FA0CF41C432EFA0CF1C6
:1033880020FA0CF3B84001434FEA14490EFA07F546
:10339800B3FBF9F81FFA84FE09FB18300B0C08FB85
:1033A8000EFA43EA00439A4502FA07F240D9E318B5
:1033B80008F1FF3004D29A4502D9A8F1020023444B
:1033C800A3EB0A0389B2B3FBF9F809FB183308FB2E
:1033D8000EFE41EA03418E452CD9611808F1FF33EE
:1033E80004D28E4502D9A8F10203214443EA0040E1
:1033F800A0FB0298A1EB0E014145CE46434602D3FD
:1034080006D14D4504D2B9EB020E68EB040301382E
:10341800002EA6D0B5EB0E0261EB030101FA0CFCFD
:1034280022FA07F34CEA0303F940C6E9003198E7AA
:103438004046C5E74346D9E7F8B500BFF8BC08BC25
:103448009E467047F8B500BFF8BC08BC9E4670475A
:10345800000000000000F03FEC51B81E85EB07406B
:10346800000000000000084014AE47E17A1408404C
:103478000000000000004940000000000000394042
:1034880000000000000034400000000000804140BF
:10349800000000000102030400000000000000001A
:0834A8000102030406070809F4
:0834B000F0FCFF7F01000000A9
:0434B800B10A00084D
:0434BC008D0A00086D
:0C34C00001000000100000000024F400D7
:0400000508003111AD
:00000001FF
