:020000040800F2
:10000000000002208D360008B1040008B304000887
:10001000B5040008B7040008B90400080000000097
:10002000000000000000000000000000BB04000809
:10003000BD04000800000000BF040008C10400085F
:10004000DD360008DD360008DD360008DD36000844
:10005000DD360008DD360008DD360008DD36000834
:10006000DD360008DD360008DD360008DD36000824
:10007000DD360008DD360008DD360008DD36000814
:10008000DD360008DD360008DD360008DD36000804
:10009000C9040008DD360008DD360008DD3600083A
:1000A000DD360008DD360008DD36000851050008A1
:1000B000DD360008DD360008C9060008DD36000818
:1000C000DD360008DD360008DD360008DD360008C4
:1000D000DD360008D9060008DD360008DD360008E8
:1000E000DD360008DD360008DD360008DD360008A4
:1000F000DD360008DD360008DD360008DD36000894
:10010000DD360008DD360008DD360008DD36000883
:10011000DD360008DD360008DD360008DD36000873
:10012000DD360008DD360008DD360008DD36000863
:10013000DD360008DD360008DD360008DD36000853
:10014000E9060008DD360008DD360008DD36000867
:10015000DD360008DD360008DD360008DD36000833
:10016000DD360008DD360008DD360008DD36000823
:10017000DD360008DD360008DD360008000000002E
:08018000DD360008DD36000841
:10018800830730B547D0541E002A3ED0CAB2034672
:1001980001E0013C39D303F8012B9D07F9D1032C69
:1001A8002CD9CDB205EB05250F2C05EB054535D926
:1001B800A4F1100222F00F0C03F1100EE6444FEAEE
:1001C800121C1A46156055609560D560103272454C
:1001D800F8D10CF1010214F00C0F03EB021204F039
:1001E8000F0C13D0ACF1040323F0030304331344BE
:1001F80042F8045B9A42FBD10CF003042CB1C9B25B
:100208001C4403F8011B9C42FBD130BD64461346D5
:10021800002CF4D1F9E703461446C0E71A46A44671
:10022800E0E700BF70B50F4B0F4DAB42A3EB0506DF
:1002380007D0B610002455F8043B01349847A6426D
:10024800F9D803F099FB094D094B5E1BAB424FEA05
:10025800A60606D0002455F8043B01349847A64268
:10026800F9D870BDB8390008B8390008B83900089D
:10027800BC39000853B94AB9002908BF00281CBF77
:100288004FF0FF314FF0FF3000F00CB8ADF1080C23
:100298006DE904CE03F01FFADDF804E0DDE902237E
:1002A80004B07047704700BF10B5054C237833B9C8
:1002B800044B13B10448AFF300800123237010BD31
:1002C8000C000020000000008039000808B5034B2E
:1002D8001BB103490348AFF3008008BD00000000CC
:1002E800100000208039000808B502680B4B9A42BC
:1002F80000D008BD02F04CFD01F090FB084A1368DD
:10030800C31A07EE903AF8EE677ADFED066A86EED2
:10031800A77A054B83ED007A1060EAE700080040F1
:100328002800002000007A443000002038B5026818
:100338000A4B9A4200D038BD0446094A1368013373
:100348001360084D0A2301222946074802F02BFFB3
:1003580001222946204603F082F9ECE7001001400B
:100368002C000020F4020020AC02002072B6FEE748
:1003780000B595B03022002108A8FFF701FF00233F
:10038800039304930593069307930193204A116CF2
:1003980041F080511164126C02F080520192019A6E
:1003A80002931C4B1A6842F480421A601B6803F4DB
:1003B80080430293029B012308934FF480330993EF
:1003C80002220E924FF480030F9304231093A82166
:1003D80011911292139308A800F0C4FD98B90F2345
:1003E800039302230493002305934FF4A053069329
:1003F8004FF480530793052103A801F01DF820B995
:1004080015B05DF804FBFFF7B1FFFFF7AFFF00BFC2
:10041800003802400070004008B501F0D9FAFFF733
:10042800A7FF02F09FFB01F0CFFF01F0FDFF02F0F4
:1004380009FB02F019F802F063FA02F0F9FC02F085
:10044800C7F802F0E1F8154800F0ECFA08B1FFF738
:100458008DFF134800F0E6FA08B1FFF787FF022185
:100468000E4800F037FC08B1FFF780FF02210C4866
:1004780000F030FC08B1FFF779FF0A4801F0B0FB43
:100488004FF4FA6001F0D0FA4FF48041012002F0F5
:10049800C0FB0621022002F099F9FEE77C0000204B
:1004A80054000020BC010020FEE7FEE7FEE7FEE75F
:1004B800FEE770477047704708B501F0A3FA08BD1A
:1004C80010B51B4BA3F11C0200211A4800F04DFB8C
:1004D800A0B1184800F01DFC01F0A0FA164A1368F4
:1004E800C31A07EE903AF8EE677ADFED146A86EEE3
:1004F800A77A134B83ED007A106010BD114C606829
:1005080004F1100204F11C01C0F3072002F0E2F923
:100518002369DBB205E00B4A1A4400211177013345
:10052800DBB2072BF7D9074B012283F87420D0E7F9
:10053800380100207C0000203800002000007A44A8
:10054800400000201C01002008B5584B1B6913F01F
:10055800020F1DD0554A136923F002031361544B4F
:100568001B78DBB2012B09D0022B2AD0002151487D
:1005780001F0F0FD4E4B00221A7009E04E4B1B684B
:100588004E4A12681344494A5363494B02221A706F
:10059800464B1B6913F0040F25D0444A136923F016
:1005A80004031361424B5B78DBB2012B11D0022BA1
:1005B80032D004213F4801F0CDFD3D4B00225A7056
:1005C80011E000213B4801F0C5FD394B00221A70AB
:1005D800DEE7394B5B68394A52681344334A936300
:1005E800334B02225A70314B1B6913F0080F25D088
:1005F8002E4A136923F0080313612D4B9B78DBB255
:10060800012B11D0022B32D008212A4801F0A2FD7B
:10061800274B00229A7011E00421264801F09AFD28
:10062800234B00225A70DEE7234B9B68234A9268CB
:1006380013441E4AD3631E4B02229A701B4B1B693C
:1006480013F0100F25D0194A136923F01003136112
:10065800174BDB78DBB2012B11D0022B1DD00C21FC
:10066800144801F077FD124B0022DA7011E00821DE
:10067800104801F06FFD0E4B00229A70DEE70E4B1A
:10068800DB680E4AD2681344084A1364084B0222F6
:10069800DA70084801F0EDFA08BD0C21054801F0B0
:1006A80059FD034B0022DA70F3E700BF0000014058
:1006B800500200200402002064020020540200209E
:1006C80008B5024801F0D5FA08BD00BFBC010020FA
:1006D80008B5024802F058FE08BD00BFAC02002071
:1006E80010B51A4BA3F11C020021194800F03DFA7D
:1006F80018B1174800F00DFB10BD164C214604F147
:100708000C0002F0E9FA103C2369DBB205E0124A5A
:100718001A44002111770133DBB2072BF7D90E4BAE
:10072800012283F8742001F079F90C4A1368C31A7E
:1007380007EE903AF8EE677ADFED096A86EEA77A57
:10074800084B83ED007A1060D3E700BFC00000209B
:1007580054000020B4000020A40000203400002031
:1007680000007A443C00002082B0002100910B4B2D
:100778005A6C42F480425A645A6C02F480420092E5
:10078800009A01911A6C42F080521A641B6C03F0B3
:1007980080530193019B02B0704700BF00380240AC
:1007A800002800F0A18038B5044690F82030D3B175
:1007B8002268136843F00103136001F02FF905461E
:1007C80023685A6812F0010F10D101F027F9401B75
:1007D8000A28F5D9636A43F400336362052384F871
:1007E8002030012038BD01F05FFEE1E71A6822F0F1
:1007F80002021A6001F012F9054623685A6812F0DD
:10080800020F0DD001F00AF9401B0A28F5D9636AD6
:1008180043F400336362052384F820300120E1E7C4
:10082800227E012A3DD01A6822F080021A60637E77
:10083800012B3BD02268136823F040031360A37E8A
:10084800012B39D02268136823F020031360E37E5C
:10085800012B37D02268136843F010031360237FFD
:10086800012B35D02268136823F008031360637FD7
:10087800012B33D02268136823F004031360A368A4
:10088800E268134322691343626913436268013AB9
:1008980021681343CB6100206062012384F8203073
:1008A800A0E71A6842F080021A60C0E7226813685D
:1008B80043F040031360C2E72268136843F0200343
:1008C8001360C4E72268136823F010031360C6E7B7
:1008D8002268136843F008031360C8E722681368A6
:1008E80043F004031360CAE70120704790F82030F2
:1008F800013BDBB2012B05D9436A43F480234362F1
:100908000120704730B5464BD3F8002242F001026F
:10091800C3F80022D3F8002222F47C52C3F8002244
:10092800D3F80022486A42EA0022C3F800224A6942
:1009380002F01F02012000FA02F2D3F81C026FEA4B
:10094800020C20EA0200C3F81C02CB69C3B9344B7D
:10095800D3F80C020CEA0000C3F80C028C88486932
:10096800CD6844EA0544483043F830408C6808882C
:1009780040EA04404C6904F1480E03EBCE0358608A
:10098800CB69012B1ED08B69002B33D12448D0F8BA
:1009980004320CEA0303C0F804320B698BBB20480D
:1009A800D0F814320CEA0303C0F814320B6A012B96
:1009B8002ED01B4AD2F8003223F00103C2F80032CD
:1009C800002030BD164BD3F80C021043C3F80C02BC
:1009D8008C8848690D6844EA0544483043F830403B
:1009E80088894C698D6840EA0540483403EBC403A4
:1009F8005860C8E70A48D0F804321343C0F80432F4
:100A0800CBE70748D0F814321343C0F81432CDE7C7
:100A18000349D1F81C321343C1F81C32C9E700BF9F
:100A28000064004070B5044690F82050EDB2012DE6
:100A380006D0436A43F4002343620125284670BD6B
:100A4800022380F820300268136823F00103136042
:100A580000F0E4FF064623685B6813F0010F0CD032
:100A680000F0DCFF831B0A2BF5D9636A43F40033DB
:100A78006362052384F82030E0E700256562DDE73E
:100A880030B590F820C00468A4680CF1FF3C5FFA08
:100A98008CFCBCF1010F62D814F0E05F59D0C4F3AC
:100AA800016C012404FA0CF41C608B68002B3DD106
:100AB8000D68CB68046843EA45550CF118031B011F
:100AC800E55003680C690CF1180E03EB0E135C601B
:100AD8000B7D012B35D0D17993791B0443EA01634F
:100AE800517943EA012314790168234301EB0C117E
:100AF800C1F88C31D17893781B0443EA01635178AB
:100B080043EA0123117802680B4302EB0C12C2F886
:100B1800883102680CF1180C4FEA0C1C52F80C30A2
:100B280043F0010342F80C3000201DE04C6843EA12
:100B3800C403CC6823430CF11804240105682B5125
:100B4800BFE7036803EB0E13596841F480715960DD
:100B5800C1E7436A43F400134362012004E0436A97
:100B680043F480234362012030BD90F820C00CF18B
:100B7800FF3C5FFA8CFCBCF1010F00F2A58030B499
:100B880051B90468E46814F0030F10D1436A43F4C0
:100B98000013436201207EE00468246914F0030F07
:100BA80005D1436A43F400134362012073E00568EA
:100BB80001F11B0424012C5904F004049460002C56
:100BC8006BD1056801F11B0424012C59640D1460D4
:100BD800046801F11B0C4FEA0C1C54F80C4004F09B
:100BE8000204D4600468A444DCF8045015F0080F2B
:100BF8005BD008241461046801F11B0C04EB0C148D
:100C08006468C4F307249461046804EB0C146468F2
:100C1800240C5461026802EB0112D2F8B8211A7050
:100C2800026802EB0112D2F8B821C2F307225A7007
:100C3800026802EB0112D2F8B821C2F307429A7097
:100C4800026802EB0112D2F8B821120EDA700268BB
:100C580002EB0112D2F8BC211A71026802EB0112F0
:100C6800D2F8BC21C2F307225A71026802EB0112C2
:100C7800D2F8BC21C2F307429A71026802EB011252
:100C8800D2F8BC21120EDA71C1B90268D36843F0F8
:100C98002003D360002030BC7047056801F11B04B5
:100CA80024012C59E408546092E701F11B0504EB78
:100CB8000514646804F00F0414619CE70268136962
:100CC80043F020031361E5E7436A43F4802343625A
:100CD8000120704790F82030013BDBB2012B05D989
:100CE800436A43F4802343620120704702685369D2
:100CF8000B43536100207047704770477047704737
:100D08007047704770477047704770477047704723
:100D180070472DE9F84F054603685C69D3F80480ED
:100D28009F68D3F80CA0D3F81090D3F818B014F03B
:100D380001063BD017F0010616D001229A6017F081
:100D4800020F08D117F0040F0CD117F0080606D0CF
:100D58004FF4805608E0FFF7CFFF002604E0FFF7C6
:100D6800CEFF01E04FF4006617F4807F0DD02B68AA
:100D78004FF480729A6017F4007F40F0968017F461
:100D8800806F00F0968046F4005617F4803F0DD02F
:100D98002B684FF480329A6017F4003F40F093803C
:100DA80017F4802F00F0938046F4004614F0080FE3
:100DB80007D01AF0100F04D046F400762B681022E2
:100DC800DA6014F0040F03D01AF0080F40F089809D
:100DD80014F0020F05D02B68DB6813F0030F40F006
:100DE800878014F0400F07D019F0100F04D046F494
:100DF80080662B6810221A6114F0200F02D019F0B7
:100E0800080F79D114F0100F04D02B681B6913F068
:100E1800030F78D114F4003F02D018F0100F76D1E8
:100E280014F4803F02D018F0080F77D114F4004F63
:100E380037D018F0040F31D014F4807F04D01BF0A1
:100E4800010F01D046F0010614F4007F04D01BF016
:100E5800020F01D046F0020614F4806F04D01BF094
:100E6800040F01D046F0040614F4006F16D01BF0EE
:100E7800700B13D0BBF1400F66D056D8BBF1200FD2
:100E88005CD0BBF1300F5CD0BBF1100F01D146F044
:100E980008062A68936923F0700393612B6804227B
:100EA8005A60002E56D1BDE8F88F2846FFF725FF77
:100EB8006BE717F4006F02D046F4804665E72846D2
:100EC800FFF71EFF61E72846FFF718FF6EE717F4E4
:100ED800002F02D046F4803668E72846FFF711FF56
:100EE80064E72B680822DA602846FFF70CFF6FE7F3
:100EF8002846FFF707FF74E72B6808221A6128467F
:100F0800FFF703FF7EE72846FFF7FEFE82E72B6820
:100F180010225A602846FFF7F9FE81E72B6808225D
:100F28005A602846FFF7F3FE80E7BBF1500F0ED05A
:100F3800BBF1600FADD146F48076AAE746F0100603
:100F4800A7E746F02006A4E746F04006A1E746F0EA
:100F580080069EE76B6A33436B622846FFF7D8FE2C
:100F6800A1E70000002800F0E08170B582B00446D7
:100F7800036813F0010F3BD09F4B9B6803F00C03F1
:100F8800042B2CD09C4B9B6803F00C03082B21D01E
:100F98006368B3F5803F4FD0B3F5A02F52D0964B7E
:100FA8001A6822F480321A601A6822F480221A60C1
:100FB8006368002B50D000F031FD05468E4B1B684E
:100FC80013F4003F14D100F029FD401B6428F5D923
:100FD8000320B1E1884B5B6813F4800FD8D0864BAF
:100FE8001B6813F4003F03D06368002B00F09F8157
:100FF800236813F0020F54D07F4B9B6813F00C0F3B
:101008003ED07D4B9B6803F00C03082B33D0E3687C
:10101800002B68D0794B01221A6000F0FFFC0546CE
:10102800754B1B6813F0020F54D100F0F7FC401BFE
:101038000228F5D903207FE16F4A136843F480330F
:101048001360B5E76C4B1A6842F480221A601A687C
:1010580042F480321A60ABE700F0E0FC0546664BCC
:101068001B6813F4003FC3D000F0D8FC401B642871
:10107800F5D9032060E1604B5B6813F4800FC6D19B
:101088005D4B1B6813F0020F03D0E368012B40F09F
:101098005081594A136823F0F803216943EAC103D0
:1010A8001360236813F0080F42D063696BB3534B86
:1010B8000122C3F8802E00F0B1FC05464E4B5B6F51
:1010C80013F0020F34D100F0A9FC401B0228F5D917
:1010D800032031E1484A136823F0F803216943EA01
:1010E800C1031360DDE7454B00221A6000F096FC4F
:1010F8000546414B1B6813F0020FD2D000F08EFC5E
:10110800401B0228F5D9032016E13C4B0022C3F806
:10111800802E00F083FC0546374B5B6F13F0020FFF
:1011280006D000F07BFC401B0228F5D9032003E120
:10113800236813F0040F77D02F4B1B6C13F0805FDC
:1011480033D1002301932C4B1A6C42F080521A645D
:101158001B6C03F080530193019B0125284B1B68EE
:1011680013F4807F23D0A368012B34D0052B38D00B
:10117800214B1A6F22F001021A671A6F22F004023B
:101188001A67A368002B3DD000F048FC06461A4BAE
:101198001B6F13F0020F46D100F040FC801B41F298
:1011A80088339842F3D90320C6E00025D6E7144ACD
:1011B800136843F48073136000F030FC0646104B4C
:1011C8001B6813F4807FCED100F028FC801B022816
:1011D800F5D90320B0E0084A136F43F00103136701
:1011E800CFE7054B1A6F42F004021A671A6F42F0F4
:1011F80001021A67C5E700BF0038024000004742F5
:101208000070004000F00AFC0646524B1B6F13F0BA
:10121800020F08D000F002FC801B41F2883398428C
:10122800F3D9032088E0EDB9A369002B00F083808F
:10123800484A926802F00C02082A51D0022B17D0B3
:10124800454B00221A6600F0E9FB0446414B1B6837
:1012580013F0007F42D000F0E1FB001B0228F5D913
:10126800032069E03B4A136C23F080531364DBE7E7
:10127800394B00221A6600F0D1FB0546354B1B6836
:1012880013F0007F06D000F0C9FB401B0228F5D9F7
:10129800032051E0E369226A1343626A43EA821336
:1012A800A26A5208013A43EA0243E26A43EA026345
:1012B800284A5360284B01221A6600F0AFFB044607
:1012C800244B1B6813F0007F06D100F0A7FB001B1E
:1012D8000228F5D903202FE000202DE000202BE084
:1012E800012B2BD01B4B5B6803F48001E269914210
:1012F80026D103F03F02216A8A4223D1616A47F668
:10130800C0721A40B2EB811F1ED103F44031A26AA9
:101318005208013AB1EB024F18D103F07063E26A48
:10132800B3EB026F14D1002006E0012070470120C2
:1013380002E0012000E0002002B070BD0120FBE7C0
:101348000120F9E70120F7E70120F5E70120F3E79D
:101358000120F1E7003802400000474208B5334B4E
:101368009B6803F00C03042B5BD0082B5BD12F4B3D
:101378005A6802F03F025B6813F4800F2CD02B4BA5
:101388005868C0F388104FEA401CBCEB000C6EEBA9
:101398000E0E4FEA8E1343EA9C634FEA8C11B1EBB1
:1013A8000C0163EB0E03DB0043EA5173C90011EB38
:1013B800000C43F10003590200234FEA4C2041EA94
:1013C800DC51FEF757FF194B5B68C3F30143013348
:1013D8005B00B0FBF3F008BD144B5868C0F38810ED
:1013E8004FEA401CBCEB000C6EEB0E0E4FEA8E135E
:1013F80043EA9C634FEA8C11B1EB0C0163EB0E03DB
:10140800DB0043EA5173C90011EB000C43F1000300
:10141800990200234FEA8C2041EA9C51FEF72AFFEB
:10142800D1E70348D7E70348D5E700BF00380240B3
:1014380000127A000024F400002800F09B8070B5A8
:101448000D4604464F4B1B6803F007038B4208D236
:10145800CBB24C4A1370136803F007038B4240F079
:101468008B80236813F0020F17D013F0040F04D0F9
:10147800454A936843F4E0539360236813F0080FD8
:1014880004D0414A936843F4604393603E4A9368AA
:1014980023F0F003A1680B439360236813F0010F56
:1014A80032D06368012B21D09A1E012A25D9364AE9
:1014B800126812F0020F61D033498A6822F00302E1
:1014C80013438B6000F0AAFA06462F4B9B6803F083
:1014D8000C036268B3EB820F16D000F09FFA801BF2
:1014E80041F288339842F0D9032042E0264A126834
:1014F80012F4003FE0D101203BE0234A126812F0C9
:10150800007FD9D1012034E01E4B1B6803F007038C
:10151800AB4207D9EAB21B4B1A701B6803F00703EA
:10152800AB422DD1236813F0040F06D0164A9368F6
:1015380023F4E053E1680B439360236813F0080F2A
:1015480007D0114A936823F46043216943EAC10331
:101558009360FFF703FF0C4B9B68C3F303130B4A1D
:10156800D35CD8400A4B18600A4B186800F00AFA96
:10157800002070BD012070470120FAE70120F8E73C
:101588000120F6E7003C024000380240A03900087C
:101598000800002004000020014B1868704700BFB5
:1015A8000800002008B5FFF7F7FF044B9B68C3F35A
:1015B8008223034AD35CD84008BD00BF00380240EC
:1015C8009839000808B5FFF7E7FF044B9B68C3F399
:1015D8004233034AD35CD84008BD00BF00380240FC
:1015E8009839000800230F2B00F2E98070B582B00B
:1015F80065E085684FEA430E032404FA0EF425EAF1
:101608000405CC6804FA0EF42C438460446824EA88
:1016180002044A68C2F300129A40224342605CE026
:10162800DC08083450F8242003F00705AD004FF01B
:101638000F0E0EFA05FE22EA0E0E0A69AA4042EAC9
:101648000E0240F824205CE0072200E0002202FAA3
:101658000EF22A4302345A4D45F82420594A946818
:101668006FEA0C0224EA0C054E6816F4801F01D0BC
:101678004CEA0405534CA560E46802EA04054E6888
:1016880016F4001F01D04CEA04054E4CE56064686E
:1016980002EA04054E6816F4003F01D04CEA04053E
:1016A800484C6560246822404D6815F4803F01D09D
:1016B8004CEA0402434C226001330F2B7DD80122EF
:1016C8009A400C6804EA020C32EA0404F4D14C682B
:1016D80004F00304013C012C8BD94A6802F0030290
:1016E800032A09D0C4685D000322AA4024EA020440
:1016F8008A68AA402243C2604A6802F00302022AAA
:101708008ED004684FEA430E032202FA0EF224EA4E
:1017180002044A6802F0030202FA0EF2224302604F
:101728004A6812F4403FC7D000220192264A546CFE
:1017380044F480445464526C02F480420192019A49
:101748009C08A51C1E4A52F8255003F0030E4FEAC8
:101758008E0E0F2202FA0EF225EA02051B4A90426B
:101768003FF474AF02F5806290421AD002F58062AD
:10177800904218D002F58062904216D002F580623D
:10178800904214D002F58062904212D002F5806235
:10179800904210D002F5806290423FF455AF082283
:1017A80055E7012253E7022251E703224FE70422BB
:1017B8004DE705224BE7062249E702B070BD7047A6
:1017C80000380140003C014000380240000002405F
:1017D80070B50446866D00F021F994F83530DBB217
:1017E800022B06D080236365002384F8343001205F
:1017F80070BD05462268136823F01603136022683B
:10180800536923F080035361236CE3B122681368A2
:1018180023F0080313602268136823F001031360A0
:1018280023681B6813F0010F11D000F0F7F8431B71
:10183800052BF5D920236365032084F835000023A0
:1018480084F83430D4E7A36C002BDFD1E3E7E26DF2
:101858003F239340B360012384F83530002084F897
:101868003400C5E790F83530DBB2022B03D0802373
:10187800436501207047052380F8353002681368F6
:1018880023F001031360002070470000002807DBE5
:1018980000F01F02400901239340024A42F8203019
:1018A800704700BF00E100E0002808DB0901C9B269
:1018B80000F1604000F5614080F80013704700F0C7
:1018C8000F000901C9B2014B1954704714ED00E02B
:1018D80000B500F00700C0F1070CBCF1040F28BFE9
:1018E8004FF0040C031D062B0FD9C31E4FF0FF3E0B
:1018F8000EFA0CF021EA000199400EFA03FE22EAE2
:101908000E0241EA02005DF804FB0023EEE7000046
:10191800074AD36823F4E0631B041B0C000200F49D
:10192800E060034343F0BF6343F40033D360704780
:1019380000ED00E010B50446054BD868C0F302205E
:10194800FFF7C6FF01462046FFF7AEFF10BD00BFF8
:1019580000ED00E008B5FFF799FF08BD0138B0F1C8
:10196800807F0BD24FF0E0235861054AF02182F8BE
:1019780023100020986107221A61704701207047E0
:1019880000ED00E010B504460E4B1A784FF47A7358
:10199800B3FBF2F30C4A1068B0FBF3F0FFF7DEFF7D
:1019A80068B90F2C01D901200AE0002221464FF026
:1019B800FF30FFF7BFFF054B1C60002000E001204F
:1019C80010BD00BF00000020080000200400002017
:1019D80008B50B4B1A6842F400721A601A6842F490
:1019E80080621A601A6842F480721A600320FFF756
:1019F8008FFF0120FFF7C6FFFEF7B6FE002008BDE7
:101A0800003C0240034A1168034B1B780B441360E7
:101A1800704700BF4400002000000020014B1868F8
:101A2800704700BF4400002038B50446FFF7F6FFB2
:101A38000546B4F1FF3F02D0044B1B781C44FFF766
:101A4800EDFF401BA042FAD338BD00BF00000020C4
:101A580030B4036A026A22F00102026242688469B1
:101A680024F0730C0C6844EA0C0423F0020C8B6815
:101A780043EA0C03114DA84203D005F58065A8423E
:101A880005D123F00803CD682B4323F004030B4D45
:101A9800A84203D005F58065A84207D122F4407218
:101AA8004D6945EA020C8A6942EA0C024260846187
:101AB8004A684263036230BC704700BF00000140BF
:101AC80030B4036A026A22F4807202624268C4690E
:101AD80024F0730C0C6844EA0C0523F400738C683A
:101AE80043EA0423114CA04203D004F58064A042C9
:101AF80006D123F40063CC6843EA042323F480630B
:101B08000A4CA04203D004F58064A04207D122F415
:101B180040524C6942EA04128C6942EA041242605B
:101B2800C5614A68C263036230BC70470000014067
:101B380030B4036A026A22F4805202624468C269BD
:101B480022F4E6420D6842EA052223F400538D6828
:101B580043EA0533094DA84203D005F58065A8423C
:101B680004D124F480444D6944EA85144460C26178
:101B78004A680264036230BC704700BF000001403D
:101B880010B4036A046A24F001040462846924F02E
:101B9800F00C4CEA021223F00A030B438261036241
:101BA8005DF8044B704710B4036A046A24F010040B
:101BB8000462846924F4704C4CEA023223F0A003D6
:101BC80043EA0113826103625DF8044B704783683E
:101BD80023F070030B4343F0070383607047000052
:101BE80090F83D30DBB2012B37D1022380F83D302D
:101BF8000268D36843F00103D3600368194A93422B
:101C080020D0B3F1804F1DD0A2F57C42934219D069
:101C180002F58062934215D002F58062934211D09A
:101C280002F5784293420DD002F57052934209D0E2
:101C3800A2F59432934205D01A6842F001021A6064
:101C4800002070479A6802F00702062A07D01A682F
:101C580042F001021A6000207047012070470020FE
:101C6800704700BF000001407047704770477047D9
:101C7800704770B504460368DE681D6915F0020FE9
:101C880010D016F0020F0DD06FF002021A61012376
:101C9800037703689B6913F0030F5ED0FFF7E6FF35
:101CA8000023237715F0040F12D016F0040F0FD07D
:101CB80023686FF004021A610223237723689B6963
:101CC80013F4407F4FD02046FFF7D0FF002323773F
:101CD80015F0080F12D016F0080F0FD023686FF018
:101CE80008021A61042323772368DB6913F0030FC2
:101CF80040D02046FFF7BAFF0023237715F0100FD6
:101D080012D016F0100F0FD023686FF010021A616E
:101D1800082323772368DB6913F4407F31D02046FA
:101D2800FFF7A4FF0023237715F0010F02D016F068
:101D3800010F2DD115F0800F02D016F0800F2FD192
:101D480015F0400F02D016F0400F31D115F0200FDA
:101D580002D016F0200F33D170BDFFF786FF204662
:101D6800FFF785FF9CE72046FFF77FFF2046FFF738
:101D78007EFFABE72046FFF778FF2046FFF777FFA7
:101D8800BAE72046FFF771FF2046FFF770FFC9E763
:101D980023686FF001021A612046FEF7A5FAC9E729
:101DA80023686FF080021A61204600F0B1FAC7E795
:101DB80023686FF040021A612046FFF759FFC5E714
:101DC80023686FF020021A61204600F0A0FAC3E7EA
:101DD8000368324A904212D0B0F1804F0FD0A2F57A
:101DE8007C4290420BD002F58062904207D002F507
:101DF8008062904203D002F57842904203D123F0EA
:101E080070034A681343254A90422AD0B0F1804FA4
:101E180027D0A2F57C42904223D002F580629042FE
:101E28001FD002F5806290421BD002F578429042A2
:101E380017D002F57052904213D002F5806290429A
:101E48000FD002F5806290420BD0A2F598329042F2
:101E580007D002F58062904203D002F5806290427A
:101E680003D123F44073CA68134323F080034A69FB
:101E780013438A68C2620A688262084A904203D0A1
:101E880002F58062904201D10A690263026842F059
:101E980004020260012242610360704700000140B1
:101EA80040B310B5044690F83D30F3B1022384F8EE
:101EB8003D30214651F8040BFFF78AFF012384F8CF
:101EC800463084F83E3084F83F3084F8403084F857
:101ED800413084F8423084F8433084F8443084F840
:101EE800453084F83D30002010BD80F83C3000F0CB
:101EF8003FFDDBE70120704740B310B5044690F87A
:101F08003D30F3B1022384F83D30214651F8040BEB
:101F1800FFF75EFF012384F8463084F83E3084F8EA
:101F28003F3084F8403084F8413084F8423084F8F7
:101F3800433084F8443084F8453084F83D3000203C
:101F480010BD80F83C30FFF78FFEDBE701207047BB
:101F580030B4036A026A22F010020262446882699D
:101F680022F4E6420D6842EA052223F020038D6838
:101F780043EA0513114DA84203D005F58065A84230
:101F880006D123F08003CD6843EA051323F040030C
:101F98000A4DA84203D005F58065A84207D124F46C
:101FA80040644D6944EA85048D6944EA85044460C7
:101FB80082614A688263036230BC70470000014056
:101FC80090F83C30012B28D010B50446012380F846
:101FD8003C300C2A1CD8DFE802F0071B1B1B0C1B2B
:101FE8001B1B111B1B1B16000068FFF731FD00208F
:101FF8000FE00068FFF7ACFF00200AE00068FFF779
:102008005FFD002005E00068FFF792FD002000E07A
:102018000120002384F83C3010BD0220704710B422
:10202800846824F47F4C42EA03220A4342EA0C0201
:1020380082605DF8044B704790F83C30012B78D0F3
:1020480010B50446012380F83C30022380F83D3067
:102058000268936823F47F4323F0770393600B6847
:10206800602B4CD023D8402B54D011D8202B03D030
:102078000AD80BB1102B05D119462068FFF7A7FD28
:10208800002028E0012026E0302BF5D0012022E0B6
:10209800502B0AD1CA6849680068FFF771FD5021C2
:1020A8002068FFF794FD002015E0012013E0B3F548
:1020B800805F3AD0B3F5005F14D0702B37D1CB686E
:1020C8004A6889680068FFF7AAFF2268936843F0A6
:1020D800770393600020012384F83D30002384F8BF
:1020E8003C3010BDCB684A6889680068FFF797FFE5
:1020F8002268936843F4804393600020EBE7CA6842
:1021080049680068FFF74FFD60212068FFF75FFD11
:102118000020E0E7CA6849680068FFF731FD402100
:102128002068FFF754FD0020D5E70020D3E7012001
:10213800D1E70220704701F01F014FF0010C0CFAA3
:1021480001FC036A23EA0C030362036A8A4013430F
:102158000362704738B505460C460C2963D8DFE89A
:1021680001F0076262622E626262346262623A0061
:102178000268D36823F00203D3600022214628684E
:10218800FFF7D9FF2B68294A93422AD002F58062CB
:10219800934226D02B68196A41F21112114208D1D4
:1021A800196A40F24442114203D11A6822F001022E
:1021B8001A602CBB012385F83E30002034E0026809
:1021C800D36823F00403D360D7E70268D36823F009
:1021D8000803D360D1E70268D36823F01003D36003
:1021E800CBE7196A41F211121142D3D1196A40F2B0
:1021F80044421142CED15A6C22F400425A64C9E7D3
:10220800042C06D0082C09D0012385F84130002081
:102218000AE0012385F83F30002005E0012385F816
:102228004030002000E0012038BD00BF0000014020
:1022380090F83C20012A3DD010B40346012280F8D2
:102248003C20022280F83D2002685068946820F003
:10225800700C086840EA0C0050601A681648824200
:102268001AD0B2F1804F17D0A0F57C40824213D02B
:1022780000F5806082420FD000F5806082420BD06A
:1022880000F57840824207D000F57050824203D0B2
:10229800A0F59430824204D124F080044968214397
:1022A8009160012283F83D20002083F83C005DF80E
:1022B800044B70470220704700000140024690F826
:1022C8003C30012B21D0012380F83C30CB6823F42B
:1022D80040738868034323F480634868034323F406
:1022E80000630868034323F480530869034323F415
:1022F80000534869034323F48043C9690B431168B9
:102308004B64002082F83C007047022070477047F9
:1023180070470000034AD2F8883043F47003C2F8CB
:102328008830704700ED00E0224B9B6803F00C03F7
:10233800042B11D0082B13D0002B37D11E4B1F4A6A
:102348001A601C4B9B68C3F303131D4AD15C1A4ADD
:102358001368CB4013607047174B1A4A1A60F0E7AE
:10236800144B59685A6802F03F0211F4800F13D0D9
:10237800144BB3FBF2F30F4A5268C2F3881202FB04
:1023880003F30C4A5268C2F3014201325200B3FB14
:10239800F2F3094A1360D4E7084BB3FBF2F3054A9A
:1023A8005268C2F3881202FB03F3EAE7024B034ABE
:1023B8001A60C6E700380240080000200024F40034
:1023C800A039000800127A0084B000220092154B50
:1023D800196B41F080011963196B01F080010091BC
:1023E80000990192196B41F010011963196B01F002
:1023F8001001019101990292196B41F002011963D0
:10240800196B01F002010291029903921A6B42F0D2
:1024180001021A631B6B03F001030393039B04B0CF
:10242800704700BF0038024008B50D480D4B0360E7
:102438000723436000238360C3604FF44032026186
:1024480043610376012242768376C3760377437726
:10245800FEF7A6F900B908BDFDF788FFFBE700BF46
:102468007C0000200064004008B50D480D4B036057
:102478000723436000238360C3604FF44032026146
:1024880043610376012242768376C37603774377E6
:10249800FEF786F900B908BDFDF768FFFBE700BF46
:1024A800540000200068004010B58AB0002305934E
:1024B800069307930893099303683F4A934204D00D
:1024C8003E4A934236D00AB010BD3D4A13680133E4
:1024D8001360012B21D0002401943A4B1A6B42F06F
:1024E80001021A631B6B03F001030193019B4FF474
:1024F800C0530593022306930323089309230993E2
:1025080005A93148FFF76EF8224621461420FFF747
:1025180011FA1420FFF71EFAD5E700230093294B80
:102528001A6C42F000721A641B6C03F0007300937B
:10253800009BD0E700230293224B1A6C42F0806282
:102548001A641B6C03F080630293029B1C4A136895
:1025580001331360012B21D000240494194B1A6B0A
:1025680042F002021A631B6B03F002030493049BFC
:102578004FF440530593022306930323089309233A
:10258800099305A91148FFF72DF822462146402056
:10259800FFF7D0F94020FFF7DDF994E70023039314
:1025A800084B1A6C42F000721A641B6C03F000733B
:1025B8000393039BD0E700BF00640040006800401D
:1025C8005000002000380240000002400004024091
:1025D80000B58BB000230593069301220792009360
:1025E8000421019102930391049308920E23099305
:1025F80069460448FEF77AF90028F9D10BB05DF86E
:1026080004FB00BF7C00002000B58BB00E230593AF
:1026180000230693012207920093019302930393E8
:1026280004930892099369460348FEF75FF9002866
:10263800F9D10BB05DF804FB5400002010B582B04E
:10264800044600238DF807308DF806308DF80530E4
:102658008DF804308DF803308B1EDBB28DF8063010
:1026680013E09DF8053001333F4AD3643F4A404B9D
:10267800A2F118013F48FEF703FA0028F6D19DF8A9
:1026880003300133DBB28DF803309DF80720D2B256
:102698009DF80630DBB29A4264D29DF806309DF868
:1026A80007209B1ADBB28DF805302F4B0021D96328
:1026B80020789DF8032042EA00221A646278D2B298
:1026C80083F8542004225A6499649DF80530DBB2DB
:1026D800072B22D88DF804109DF80420D2B29DF85B
:1026E8000530DBB29A42BCD29DF8073002339DF820
:1026F80004100131E25CD2B21B4B0B4483F8542026
:102708009DF804300133DBB28DF804309DF80730B2
:102718000133DBB28DF80730DEE700238DF8043093
:102728009DF80430DBB2062B18D89DF80730023329
:102738009DF804100131E25CD2B20B4B0B4483F8D4
:1027480054209DF804300133DBB28DF804309DF835
:1027580007300133DBB28DF80730E1E7024B08227E
:10276800DA6483E702B010BD1C010020700100206C
:102778004C0000207C00002008B50378DBB20F4A2B
:10278800D3630023536493640139D1640AE003F1ED
:10279800010E10F80EC05FFA8CFC084A134483F847
:1027A80054C073469942F2DC054A064BA2F118015F
:1027B8000548FEF765F90028F6D108BDA4000020F9
:1027C800F8000020480000205400002000B585B023
:1027D800002300930193029303938DF800001429BA
:1027E80069D8DFE801F00B181C2024282C30343875
:1027F8003C4044484C5054585C6070001F238DF88E
:1028080001306B238DF8023003216846FFF716FF6D
:1028180005B05DF804FB20238DF80130F1E7212392
:102828008DF80130EDE722238DF80130E9E7242304
:102838008DF80130E5E726238DF80130E1E72723FD
:102848008DF80130DDE729238DF80130D9E73023F1
:102858008DF80130D5E731238DF80130D1E73223E7
:102868008DF80130CDE733238DF80130C9E73423E3
:102878008DF80130C5E735238DF80130C1E73623DF
:102888008DF80130BDE737238DF80130B9E73923DA
:102898008DF80130B5E73A238DF80130B1E73B23D5
:1028A8008DF80130ADE742238DF801306C238DF8A7
:1028B80002301229A5D96B238DF80330042168460C
:1028C800FFF7BCFEA4E743238DF801307A238DF887
:1028D8000230EEE729B122B1127812B10A78272A1C
:1028E80000D070474A788B7843EA02231BB201383C
:1028F80000EB8000014A42F82030F2E79401002002
:1029080000B587B0002302930393049305930093C3
:1029180001931548154A026053224260836040F2D1
:10292800E732C26003618361FFF7BAFA90B94FF4E6
:102938008053029302A90C48FFF77EFB68B9002375
:102948000093019369460848FFF772FC40B907B045
:102958005DF804FBFDF70AFDE9E7FDF707FDEEE783
:10296800FDF704FDF3E700BFBC01002000080040AC
:1029780000B583B00368184A934205D0174A9342BA
:1029880016D003B05DF804FB00210091144B5A6C7B
:1029980042F001025A645B6C03F001030093009B50
:1029A8000A461B20FEF7C6FF1B20FEF7D3FFE8E709
:1029B800002101910A4B1A6C42F004021A641B6C44
:1029C80003F004030193019B0A461E20FEF7B2FFA1
:1029D8001E20FEF7BFFFD4E70000014000080040BA
:1029E8000038024000B587B0002301930293039397
:1029F800049305930268104B9A4202D007B05DF821
:102A080004FB002300930D4B1A6B42F010021A636B
:102A18001B6B03F010030093009B4FF4D443019306
:102A280002230293032304930123059301A9044875
:102A3800FEF7D8FDE2E700BF000001400038024081
:102A48000010024010B596B0002412941394149408
:102A580015941094119409940A940B940C940D9461
:102A68000E940F942022214601A8FDF789FB3B48CC
:102A78003B4B0360446084604FF6FF73C36004619E
:102A880044618461FFF70CFA00284BD14FF480535E
:102A9800129312A93148FFF7CFFA002845D12F48E1
:102AA800FFF72AFA002843D100231093119310A9A5
:102AB8002A48FFF7BDFB00283DD1302309930022A7
:102AC8000A920B920C920D920E920F9209A923482A
:102AD800FFF776FA002831D1042209A91F48FFF729
:102AE8006FFA70BB082209A91C48FFF769FA58BB9E
:102AF8000C2209A91948FFF763FA40BB0023019388
:102B080002930393049305934FF40052069208939B
:102B180001A91248FFF7D2FBE0B91048FFF762FF9E
:102B280016B010BDFDF722FCB0E7FDF71FFCB6E7B5
:102B3800FDF71CFCB8E7FDF719FCBEE7FDF716FC2E
:102B4800CAE7FDF713FCCDE7FDF710FCD0E7FDF76A
:102B58000DFCD3E7FDF70AFCDFE700BF0402002005
:102B68000000014008B5FFF7DFFB0D4B1A680D4B5D
:102B78009B68C3F34233043B032B03D8DFE803F01D
:102B88000E0C0A05084B1A6003E012095200064BA6
:102B98001A6008BDD208F9E79208F7E75208F5E786
:102BA80008000020003802404C02002000B583B025
:102BB8000023009301938DF80000A1238DF80130C4
:102BC80002216846FFF7D8FD03B05DF804FB00B5A5
:102BD80083B00023009301938DF80000A2238DF8A1
:102BE800013002216846FFF7C7FD03B05DF804FB1A
:102BF80000B583B00023009301938DF80000A32350
:102C08008DF8013002216846FFF7B6FD03B05DF884
:102C180004FB00B585B000230193029303938DF85C
:102C28000400C3238DF805308DF80610C1F307237F
:102C38008DF80730C1F307438DF80830090E8DF879
:102C48000910062101A8FFF797FD05B05DF804FB00
:102C580008B5194B1B7C03F00703072B00D008BDF0
:102C6800154B1968154A11605968154A1160996819
:102C7800144A1160D968144A11601A7C22F00102C2
:102C88001A74D2B222F002021A74D2B222F00402EA
:102C98001A74FEF7C3FE0D4A1368C31A07EE903A7A
:102CA800F8EE677ADFED0A6A86EEA77A094B83EDBC
:102CB800007A1060D3E700BF8C0200208802002051
:102CC80084020020800200207C0200207402002080
:102CD80000007A4478020020002855D002460029D6
:102CE80052D008B50B6853B10378DBB2A22B1AD0C7
:102CF800A32B2ED0A12B02D10B68042B00D808BD22
:102D08004378817843EA0123C17843EA0143027991
:102D180043EA02631D4A1360137C43F001031374F2
:102D2800FFF796FFEBE70B68042BE8D94378817827
:102D380043EA0123C17843EA0143027943EA026383
:102D4800124A5360137C43F002031374FFF780FFA9
:102D5800D5E70B68062BD2D94378817843EA01235B
:102D68000A498B60C378007943EA0023507943EA23
:102D78000043927943EA0263CB600B7C43F004037F
:102D88000B74FFF765FFBAE7704700BF8C0200209D
:102D980008B5214B1B78012B05D0022B06D043B96F
:102DA8000120FFF703FF0120FFF711FF0120FFF7C4
:102DB8001FFF1A4B1B78012B02D0022B04D007E00F
:102DC80006210120FFF702FD06210220FFF7FEFC85
:102DD80011490A780132124B83FB020303EB4303C8
:102DE800D31A0B700D4A1378013303F0010348BF5F
:102DF8005B421370FEF712FE0A4A1368C31A07EE05
:102E0800903AF8EE677ADFED086A86EEA77A074B04
:102E180083ED007A106008BDA5020020A4020020FE
:102E280056555555A002002000007A44A8020020FB
:102E380008B50D480D4B03604FF4E13343600023A0
:102E48008360C36003610C2242618361C36100F047
:102E58007AF928B901220649034800F000FC08BDA8
:102E6800FDF784FAF6E700BFAC020020001001402D
:102E7800F402002010B588B000230393049305934F
:102E880006930793026803F1804303F588339A4257
:102E980001D008B010BD0024019403F594335A6C96
:102EA80042F010025A645A6C02F010020192019A20
:102EB80002941A6B42F001021A631B6B03F00103C0
:102EC8000293029B4FF4C0630393022304930323EA
:102ED80006930723079303A90548FEF783FB2246B9
:102EE80001212520FEF726FD2520FEF733FDD0E73A
:102EF80000000240026802F10C0353E8003F23F48B
:102F080090730C3242E800310029F3D1026802F1D3
:102F1800140353E8003F23F00103143242E8003160
:102F28000029F3D1036B012B05D0202380F8423010
:102F3800002303637047026802F10C0353E8003F63
:102F480023F010030C3242E800310029F3D1ECE7FA
:102F580090F84130DBB2212B01D002207047836802
:102F6800B3F5805F17D0036A5A1C02621A780368A7
:102F78005A60C38C9BB2013B9BB2C3844BB90268B5
:102F8800D36823F08003D3600268D36843F040031A
:102F9800D360002070470369002BE4D1036A1B88C3
:102FA8000268C3F308035360036A02330362E0E76D
:102FB80010B504460268136923F44053C1680B43F3
:102FC8001361836802691A4343691A43C3691A4340
:102FD8000168CB6823F4164323F00C031343CB603A
:102FE8000268536923F4407381690B435361036892
:102FF800314A934206D002F58062934202D0FEF72E
:10300800D1FA01E0FEF7DEFAE369B3F5004F29D003
:103018000021031849411B1841F10001C90041EA88
:103028005371DB00181863684FEA83024FEA937301
:1030380041F10001FDF71EF9204AA2FB00314909C0
:10304800642303FB11031B013233A2FB03235B0937
:1030580003F0F00202EB011203F00F03216813449E
:103068008B6010BD0023021843EB0301121841F1D5
:103078000001C90041EA5271D200101841F1000163
:10308800626892185B41FDF7F5F80C4AA2FB003123
:103098004909642303FB1103DB003233A2FB03233A
:1030A8005B095A0002F4F87202EB011203F00703FD
:1030B800216813448B60D4E7001001401F85EB5151
:1030C8002DE9F04383B005460E4617469946DDF8CC
:1030D80028802B681C6836EA04040CBF01240024ED
:1030E800BC4228D1B8F1FF3FF3D0FEF797FCA0EB24
:1030F8000900404523D8B8F1000F22D02B68DA68C0
:1031080012F0040FE5D0802EE3D0402EE1D01A68EB
:1031180012F0080FDDD0002401941A6801925B6850
:103128000193019B2846FFF7E5FE08236B6485F8A9
:103138004040012000E0002003B0BDE8F0830320F8
:10314800FAE70320F8E760B310B5044690F8413079
:1031580013B3242384F841302268D36823F400533E
:10316800D3602046FFF724FF2268136923F49043B5
:1031780013612268536923F02A0353612268D368D4
:1031880043F40053D36000206064202384F8413066
:1031980084F84230606310BD80F84030FFF76AFE63
:1031A800D7E7012070472DE9F04182B01E4690F81C
:1031B8004130DBB2202B56D104460D4690460029FB
:1031C80055D00AB901204FE000234364212380F839
:1031D8004130FEF723FC0746A4F82480A4F8268093
:1031E800A368B3F5805F02D04FF0000814E02369AC
:1031F8002BB34FF000080FE0202384F84130032060
:1032080032E038F8023B2268C3F308035360E28CCB
:1032180092B2013A92B2E284E38C9BB293B10096E7
:103228003B46002280212046FFF74AFF0028E3D1D1
:10323800002DE6D015F8012B23685A60E7E7A84669
:103248000025E9E700963B46002240212046FFF78B
:1032580037FF18B9202384F8413005E0202384F88B
:103268004130032000E0022002B0BDE8F0810120D7
:10327800FAE7704708B50168CA6822F04002CA60D8
:10328800202280F84120FFF7F4FF002008BD704796
:1032980008B5806B0023C385FFF7F9FF08BD7047A9
:1032A80090F84230DBB2222B69D18368B3F5805F96
:1032B8004FD0826AB3F5805F04D0002B56D10369E2
:1032C800002B53D103685B681370836A01338362F0
:1032D800C38D9BB2013B9BB2C385002B51D100B576
:1032E80083B00268D36823F02003D3600268D368F0
:1032F80023F48073D3600268536923F00103536198
:10330800202380F8423000234363036B012B33D121
:1033180000230363026802F10C0353E8003F23F023
:1033280010030C3242E800310029F3D103681A680F
:1033380012F0100F06D0002201921A6801925B6801
:103348000193019B818DFFF7AAFF002003B05DF870
:1033580004FB0269002AACD1826A03685B68C3F384
:1033680008031380836A02338362B1E703685B68EA
:1033780003F07F031370A8E7FCF7D8FFE5E7022006
:10338800704700207047000010B582B004460268FC
:103398001368D068516913F00F0F09D113F0200F8B
:1033A8000CD010F0200F09D02046FFF779FF16E067
:1033B80011F0010115D110F4907F12D1216B012970
:1033C80079D013F0800F03D010F0800F40F02181E6
:1033D80013F0400F03D010F0400F40F01E8102B0F0
:1033E80010BD13F0010F06D010F4807F03D0626C7B
:1033F80042F00102626413F0040F04D019B1626C48
:1034080042F00202626413F0020F04D019B1626C38
:1034180042F00402626413F0080F07D010F0200F86
:1034280000D119B1626C42F008026264626C002A31
:10343800D5D013F0200F02D010F0200F29D1236827
:103448005B6903F04003626C12F0080F00D163B3AC
:103458002046FFF74FFD23685B6913F0400F20D02B
:10346800226802F1140353E8003F23F040031432AA
:1034780042E800310029F3D1E36B73B1694A1A6558
:10348800E06BFEF7EFF90028A9D0E06B036D9847D1
:10349800A5E72046FFF704FFD1E72046FFF7F7FE30
:1034A8009DE72046FFF7F3FE99E72046FFF7EFFE7A
:1034B8000023636493E713F0100F82D010F0100F0D
:1034C8003FF47FAF0023019313680193536801937E
:1034D800019B536913F0400F5FD0E26B13685B6880
:1034E8009BB2002B4AD0A18D994247D9E385D36975
:1034F800B3F5807F37D0226802F10C0353E8003F10
:1035080023F480730C3242E800310029F3D1226899
:1035180002F1140353E8003F23F00103143242E898
:1035280000310029F3D1226802F1140353E8003F67
:1035380023F04003143242E800310029F3D120235C
:1035480084F8423000232363226802F10C0353E815
:10355800003F23F010030C3242E800310029F3D178
:10356800E06BFEF735F902236363A18DE38D9BB20F
:10357800C91A89B22046FFF792FE30E7A18D994219
:103588007FF42DAFD369B3F5807F7FF428AF022392
:1035980063632046FFF783FE21E7A18DE38D9BB28D
:1035A800C91A89B2E38D9BB2002B3FF418AF0029EA
:1035B8003FF415AF226802F10C0353E8003F23F4EF
:1035C80090730C3242E800300028F3D1226802F1EF
:1035D800140353E8003F23F00103143242E800309B
:1035E8000028F3D1202384F8423000232363226883
:1035F80002F10C0353E8003F23F010030C3242E8B9
:1036080000300028F3D1022363632046FFF747FE0A
:10361800E5E62046FFF79CFCE1E62046FFF72AFE98
:10362800DDE600BF9932000881628285C2850023E9
:103638004364222380F84230036923B10268D368C7
:1036480043F48073D3600268536943F00103536104
:103658000268D36843F02003D3600020704708B5A0
:1036680090F84230DBB2202B08D149B10AB90120C9
:1036780008BD00230363FFF7D7FFF9E70220F7E748
:103688000120F5E7DFF834D0FEF744FE0C480D4979
:103698000D4A002302E0D458C4500433C4188C42A5
:1036A800F9D30A4A0A4C002301E013600432A2420B
:1036B800FBD3FCF7B7FDFCF7AFFE70470000022014
:1036C800000000200C000020C03900080C00002079
:1036D800F8020020FEE72DE9F04786468C460846AA
:1036E800089E154674461946002B40F0C280854254
:1036F800B2FA82F245D94AB1C2F1200300FA02FCBB
:103708002EFA03F3954043EA0C0C94404FEA154E09
:10371800A8B2BCFBFEF8230C0EFB18CC08FB00F982
:1037280043EA0C43994528D9EB1808F1FF3704D22E
:10373800994502D9A8F102072B44A3EB0903A4B2C7
:10374800B3FBFEFC0EFB1C330CFB00F044EA034405
:10375800A04214D92C190CF1FF3304D2A04202D98B
:10376800ACF102032C44241A43EA07401EB1D440AA
:10377800002334607360BDE8F0874746DDE76346A1
:10378800F1E792BB431B01214FEA154EAFB2B3FBE1
:10379800FEFC200C0EFB1C330CFB07F840EA03432D
:1037A800984562D9EB180CF1FF3004D2984502D93C
:1037B800ACF102002B44A3EB0803A4B2B3FBFEFC5C
:1037C8000EFB1C330CFB07F744EA0344A7424ED90F
:1037D8002C190CF1FF3304D2A74202D9ACF1020331
:1037E8002C44E41B43EA0040C0E7C2F1200320FA5E
:1037F80003F1954090402EFA03F303434FEA154E28
:10380800AFB2B1FBFEFC0EFB1C10190C0CFB07F849
:1038180041EA0041884504FA02F422D969180CF1FA
:10382800FF3004D2884502D9ACF102002944A1EB4B
:1038380008019BB2B1FBFEFC0EFB1C110CFB07F749
:1038480043EA01439F420ED9EB180CF1FF3104D231
:103858009F4202D9ACF102012B44DB1B41EA004133
:1038680092E76046E3E76146F7E76046A3E7634609
:10387800B7E7834206D916B9002108467BE7C6E9AF
:1038880000E0F9E7B3FA83F78FB9834201D37245B1
:1038980008D8BEEB020460EB030301209C461EB966
:1038A800002168E73846FAE7C6E9004CF8E7C7F1AF
:1038B800200CBB4022FA0CF41C432EFA0CF120FA1F
:1038C8000CF3B84001434FEA14490EFA07F5B3FB6D
:1038D800F9F81FFA84FE09FB18300B0C08FB0EFAE6
:1038E80043EA00439A4502FA07F240D9E31808F17F
:1038F800FF3004D29A4502D9A8F102002344A3EB71
:103908000A0389B2B3FBF9F809FB183308FB0EFE6A
:1039180041EA03418E452CD9611808F1FF3304D2DE
:103928008E4502D9A8F10203214443EA0040A0FBD6
:103938000298A1EB0E014145CE46434602D306D17B
:103948004D4504D2B9EB020E68EB04030138002E92
:10395800A6D0B5EB0E0261EB030101FA0CFC22FACA
:1039680007F34CEA0303F940C6E9003198E74046FB
:10397800C5E74346D9E70000F8B500BFF8BC08BC66
:103988009E467047F8B500BFF8BC08BC9E46704715
:103998000000000001020304000000000000000015
:0839A8000102030406070809EF
:0839B0002EFDFF7F0100000065
:0439B800D50200082C
:0439BC00B10200084C
:0C39C00001000000100000000024F400D2
:040000050800368D2C
:00000001FF
